{
  "contractName": "CIDBatchLog",
  "abi": [
    {
      "anonymous": false,
      "inputs": [
        {
          "indexed": true,
          "internalType": "bytes32",
          "name": "batchId",
          "type": "bytes32"
        },
        {
          "indexed": false,
          "internalType": "bytes32",
          "name": "aggregateHash",
          "type": "bytes32"
        }
      ],
      "name": "AggregateReleased",
      "type": "event"
    },
    {
      "anonymous": false,
      "inputs": [
        {
          "indexed": true,
          "internalType": "bytes32",
          "name": "batchId",
          "type": "bytes32"
        },
        {
          "indexed": true,
          "internalType": "address",
          "name": "sender",
          "type": "address"
        },
        {
          "indexed": true,
          "internalType": "address",
          "name": "receiver",
          "type": "address"
        },
        {
          "indexed": false,
          "internalType": "uint256",
          "name": "cidCount",
          "type": "uint256"
        },
        {
          "indexed": false,
          "internalType": "bytes32",
          "name": "aggregateHash",
          "type": "bytes32"
        },
        {
          "indexed": false,
          "internalType": "bytes32",
          "name": "messageHash",
          "type": "bytes32"
        },
        {
          "indexed": false,
          "internalType": "uint256",
          "name": "timelock",
          "type": "uint256"
        }
      ],
      "name": "BatchCreated",
      "type": "event"
    },
    {
      "anonymous": false,
      "inputs": [
        {
          "indexed": true,
          "internalType": "bytes32",
          "name": "batchId",
          "type": "bytes32"
        },
        {
          "indexed": true,
          "internalType": "address",
          "name": "verifier",
          "type": "address"
        }
      ],
      "name": "BatchVerified",
      "type": "event"
    },
    {
      "anonymous": false,
      "inputs": [
        {
          "indexed": true,
          "internalType": "bytes32",
          "name": "batchId",
          "type": "bytes32"
        },
        {
          "indexed": false,
          "internalType": "bytes32[]",
          "name": "cids",
          "type": "bytes32[]"
        }
      ],
      "name": "CIDsLogged",
      "type": "event"
    },
    {
      "constant": true,
      "inputs": [
        {
          "internalType": "bytes32",
          "name": "",
          "type": "bytes32"
        }
      ],
      "name": "batches",
      "outputs": [
        {
          "internalType": "address",
          "name": "sender",
          "type": "address"
        },
        {
          "internalType": "address",
          "name": "receiver",
          "type": "address"
        },
        {
          "internalType": "uint256",
          "name": "cidCount",
          "type": "uint256"
        },
        {
          "internalType": "bytes32",
          "name": "aggregateHash",
          "type": "bytes32"
        },
        {
          "internalType": "bytes32",
          "name": "messageHash",
          "type": "bytes32"
        },
        {
          "internalType": "uint256",
          "name": "timelock",
          "type": "uint256"
        },
        {
          "internalType": "bool",
          "name": "released",
          "type": "bool"
        },
        {
          "internalType": "bool",
          "name": "verified",
          "type": "bool"
        }
      ],
      "payable": false,
      "stateMutability": "view",
      "type": "function"
    },
    {
      "constant": true,
      "inputs": [
        {
          "internalType": "bytes32[]",
          "name": "_cids",
          "type": "bytes32[]"
        }
      ],
      "name": "computeAggregate",
      "outputs": [
        {
          "internalType": "bytes32",
          "name": "",
          "type": "bytes32"
        }
      ],
      "payable": false,
      "stateMutability": "pure",
      "type": "function"
    },
    {
      "constant": false,
      "inputs": [
        {
          "internalType": "address",
          "name": "_receiver",
          "type": "address"
        },
        {
          "internalType": "bytes32[]",
          "name": "_cids",
          "type": "bytes32[]"
        },
        {
          "internalType": "bytes32",
          "name": "_messageHash",
          "type": "bytes32"
        },
        {
          "internalType": "uint256",
          "name": "_timelock",
          "type": "uint256"
        }
      ],
      "name": "createBatch",
      "outputs": [
        {
          "internalType": "bytes32",
          "name": "batchId",
          "type": "bytes32"
        },
        {
          "internalType": "bytes32",
          "name": "aggregateHash",
          "type": "bytes32"
        }
      ],
      "payable": false,
      "stateMutability": "nonpayable",
      "type": "function"
    },
    {
      "constant": false,
      "inputs": [
        {
          "internalType": "bytes32",
          "name": "_batchId",
          "type": "bytes32"
        }
      ],
      "name": "releaseAggregate",
      "outputs": [
        {
          "internalType": "bytes32",
          "name": "aggregateHash",
          "type": "bytes32"
        }
      ],
      "payable": false,
      "stateMutability": "nonpayable",
      "type": "function"
    },
    {
      "constant": false,
      "inputs": [
        {
          "internalType": "bytes32",
          "name": "_batchId",
          "type": "bytes32"
        },
        {
          "internalType": "bytes32[]",
          "name": "_cids",
          "type": "bytes32[]"
        }
      ],
      "name": "verifyCIDs",
      "outputs": [
        {
          "internalType": "bool",
          "name": "",
          "type": "bool"
        }
      ],
      "payable": false,
      "stateMutability": "nonpayable",
      "type": "function"
    },
    {
      "constant": false,
      "inputs": [
        {
          "internalType": "bytes32",
          "name": "_batchId",
          "type": "bytes32"
        },
        {
          "internalType": "bytes",
          "name": "_message",
          "type": "bytes"
        }
      ],
      "name": "verifyMessage",
      "outputs": [
        {
          "internalType": "bool",
          "name": "",
          "type": "bool"
        }
      ],
      "payable": false,
      "stateMutability": "nonpayable",
      "type": "function"
    },
    {
      "constant": true,
      "inputs": [
        {
          "internalType": "bytes32",
          "name": "_batchId",
          "type": "bytes32"
        }
      ],
      "name": "getBatch",
      "outputs": [
        {
          "internalType": "address",
          "name": "sender",
          "type": "address"
        },
        {
          "internalType": "address",
          "name": "receiver",
          "type": "address"
        },
        {
          "internalType": "uint256",
          "name": "cidCount",
          "type": "uint256"
        },
        {
          "internalType": "bytes32",
          "name": "aggregateHash",
          "type": "bytes32"
        },
        {
          "internalType": "bytes32",
          "name": "messageHash",
          "type": "bytes32"
        },
        {
          "internalType": "uint256",
          "name": "timelock",
          "type": "uint256"
        },
        {
          "internalType": "bool",
          "name": "released",
          "type": "bool"
        },
        {
          "internalType": "bool",
          "name": "verified",
          "type": "bool"
        }
      ],
      "payable": false,
      "stateMutability": "view",
      "type": "function"
    }
  ],
  "bytecode": "0x608060405234801561001057600080fd5b5061163e806100206000396000f3fe608060405234801561001057600080fd5b506004361061007d5760003560e01c806377e1d3021161005b57806377e1d3021461022b578063c81e25ab146102c6578063ce19a50514610399578063ed42136f146104615761007d565b8063254a64ee146100825780633b51be4b146100c4578063629307fd1461015f575b600080fd5b6100ae6004803603602081101561009857600080fd5b8101908080359060200190929190505050610534565b6040518082815260200191505060405180910390f35b610145600480360360408110156100da57600080fd5b81019080803590602001909291908035906020019064010000000081111561010157600080fd5b82018360208201111561011357600080fd5b8035906020019184600183028401116401000000008311171561013557600080fd5b90919293919293905050506107fc565b604051808215151515815260200191505060405180910390f35b6102156004803603602081101561017557600080fd5b810190808035906020019064010000000081111561019257600080fd5b8201836020820111156101a457600080fd5b803590602001918460208302840111640100000000831117156101c657600080fd5b919080806020026020016040519081016040528093929190818152602001838360200280828437600081840152601f19601f820116905080830192505050505050509192919290505050610a0e565b6040518082815260200191505060405180910390f35b6102ac6004803603604081101561024157600080fd5b81019080803590602001909291908035906020019064010000000081111561026857600080fd5b82018360208201111561027a57600080fd5b8035906020019184602083028401116401000000008311171561029c57600080fd5b9091929391929390505050610b0a565b604051808215151515815260200191505060405180910390f35b6102f2600480360360208110156102dc57600080fd5b8101908080359060200190929190505050610e3f565b604051808973ffffffffffffffffffffffffffffffffffffffff1673ffffffffffffffffffffffffffffffffffffffff1681526020018873ffffffffffffffffffffffffffffffffffffffff1673ffffffffffffffffffffffffffffffffffffffff16815260200187815260200186815260200185815260200184815260200183151515158152602001821515151581526020019850505050505050505060405180910390f35b610444600480360360808110156103af57600080fd5b81019080803573ffffffffffffffffffffffffffffffffffffffff169060200190929190803590602001906401000000008111156103ec57600080fd5b8201836020820111156103fe57600080fd5b8035906020019184602083028401116401000000008311171561042057600080fd5b90919293919293908035906020019092919080359060200190929190505050610ee1565b604051808381526020018281526020019250505060405180910390f35b61048d6004803603602081101561047757600080fd5b8101908080359060200190929190505050611526565b604051808973ffffffffffffffffffffffffffffffffffffffff1673ffffffffffffffffffffffffffffffffffffffff1681526020018873ffffffffffffffffffffffffffffffffffffffff1673ffffffffffffffffffffffffffffffffffffffff16815260200187815260200186815260200185815260200184815260200183151515158152602001821515151581526020019850505050505050505060405180910390f35b600081600073ffffffffffffffffffffffffffffffffffffffff1660008083815260200190815260200160002060000160009054906101000a900473ffffffffffffffffffffffffffffffffffffffff1673ffffffffffffffffffffffffffffffffffffffff16141561060f576040517f08c379a00000000000000000000000000000000000000000000000000000000081526004018080602001828103825260148152602001807f626174636820646f6573206e6f7420657869737400000000000000000000000081525060200191505060405180910390fd5b8260008082815260200190815260200160002060000160009054906101000a900473ffffffffffffffffffffffffffffffffffffffff1673ffffffffffffffffffffffffffffffffffffffff163373ffffffffffffffffffffffffffffffffffffffff16146106e6576040517f08c379a000000000000000000000000000000000000000000000000000000000815260040180806020018281038252600b8152602001807f6f6e6c792073656e64657200000000000000000000000000000000000000000081525060200191505060405180910390fd5b8360008082815260200190815260200160002060060160009054906101000a900460ff161561077d576040517f08c379a00000000000000000000000000000000000000000000000000000000081526004018080602001828103825260108152602001807f616c72656164792072656c65617365640000000000000000000000000000000081525060200191505060405180910390fd5b6000806000878152602001908152602001600020905060018160060160006101000a81548160ff021916908315150217905550857fe8b186392bd663bab5581e0f209d2d8e707974ed9c470a147e81837c43ca216f82600301546040518082815260200191505060405180910390a28060030154945050505050919050565b600083600073ffffffffffffffffffffffffffffffffffffffff1660008083815260200190815260200160002060000160009054906101000a900473ffffffffffffffffffffffffffffffffffffffff1673ffffffffffffffffffffffffffffffffffffffff1614156108d7576040517f08c379a00000000000000000000000000000000000000000000000000000000081526004018080602001828103825260148152602001807f626174636820646f6573206e6f7420657869737400000000000000000000000081525060200191505060405180910390fd5b600080600087815260200190815260200160002090506000801b8160040154141561096a576040517f08c379a00000000000000000000000000000000000000000000000000000000081526004018080602001828103825260128152602001807f6e6f206d6573736167654861736820736574000000000000000000000000000081525060200191505060405180910390fd5b80600401548585604051808383808284378083019250505092505050604051809103902014610a01576040517f08c379a00000000000000000000000000000000000000000000000000000000081526004018080602001828103825260158152602001807f6d6573736167652068617368206d69736d61746368000000000000000000000081525060200191505060405180910390fd5b6001925050509392505050565b6000600282518360405160200180838152602001828051906020019060200280838360005b83811015610a4e578082015181840152602081019050610a33565b50505050905001925050506040516020818303038152906040526040518082805190602001908083835b60208310610a9b5780518252602082019150602081019050602083039250610a78565b6001836020036101000a038019825116818451168082178552505050505050905001915050602060405180830381855afa158015610add573d6000803e3d6000fd5b5050506040513d6020811015610af257600080fd5b81019080805190602001909291905050509050919050565b600083600073ffffffffffffffffffffffffffffffffffffffff1660008083815260200190815260200160002060000160009054906101000a900473ffffffffffffffffffffffffffffffffffffffff1673ffffffffffffffffffffffffffffffffffffffff161415610be5576040517f08c379a00000000000000000000000000000000000000000000000000000000081526004018080602001828103825260148152602001807f626174636820646f6573206e6f7420657869737400000000000000000000000081525060200191505060405180910390fd5b8460008082815260200190815260200160002060060160019054906101000a900460ff1615610c7c576040517f08c379a00000000000000000000000000000000000000000000000000000000081526004018080602001828103825260108152602001807f616c72656164792076657269666965640000000000000000000000000000000081525060200191505060405180910390fd5b6000806000888152602001908152602001600020905080600201548686905014610d0e576040517f08c379a00000000000000000000000000000000000000000000000000000000081526004018080602001828103825260128152602001807f43494420636f756e74206d69736d61746368000000000000000000000000000081525060200191505060405180910390fd5b8060030154610d5d878780806020026020016040519081016040528093929190818152602001838360200280828437600081840152601f19601f82011690508083019250505050505050610a0e565b14610dd0576040517f08c379a00000000000000000000000000000000000000000000000000000000081526004018080602001828103825260128152602001807f616767726567617465206d69736d61746368000000000000000000000000000081525060200191505060405180910390fd5b60018160060160016101000a81548160ff0219169083151502179055503373ffffffffffffffffffffffffffffffffffffffff16877f8511746b73275e06971968773119b9601fc501d7bdf3824d8754042d148940e260405160405180910390a3600193505050509392505050565b60006020528060005260406000206000915090508060000160009054906101000a900473ffffffffffffffffffffffffffffffffffffffff16908060010160009054906101000a900473ffffffffffffffffffffffffffffffffffffffff16908060020154908060030154908060040154908060050154908060060160009054906101000a900460ff16908060060160019054906101000a900460ff16905088565b60008082428111610f3d576040517f08c379a00000000000000000000000000000000000000000000000000000000081526004018080602001828103825260238152602001806115e76023913960400191505060405180910390fd5b600073ffffffffffffffffffffffffffffffffffffffff168873ffffffffffffffffffffffffffffffffffffffff161415610fe0576040517f08c379a000000000000000000000000000000000000000000000000000000000815260040180806020018281038252600a8152602001807f72656365697665723d300000000000000000000000000000000000000000000081525060200191505060405180910390fd5b60008787905011611059576040517f08c379a000000000000000000000000000000000000000000000000000000000815260040180806020018281038252600e8152602001807f656d70747920434944206c69737400000000000000000000000000000000000081525060200191505060405180910390fd5b6110a3878780806020026020016040519081016040528093929190818152602001838360200280828437600081840152601f19601f82011690508083019250505050505050610a0e565b915060023389848888604051602001808673ffffffffffffffffffffffffffffffffffffffff1673ffffffffffffffffffffffffffffffffffffffff1660601b81526014018573ffffffffffffffffffffffffffffffffffffffff1673ffffffffffffffffffffffffffffffffffffffff1660601b8152601401848152602001838152602001828152602001955050505050506040516020818303038152906040526040518082805190602001908083835b602083106111785780518252602082019150602081019050602083039250611155565b6001836020036101000a038019825116818451168082178552505050505050905001915050602060405180830381855afa1580156111ba573d6000803e3d6000fd5b5050506040513d60208110156111cf57600080fd5b81019080805190602001909291905050509250600073ffffffffffffffffffffffffffffffffffffffff1660008085815260200190815260200160002060000160009054906101000a900473ffffffffffffffffffffffffffffffffffffffff1673ffffffffffffffffffffffffffffffffffffffff16146112b9576040517f08c379a000000000000000000000000000000000000000000000000000000000815260040180806020018281038252600c8152602001807f626174636820657869737473000000000000000000000000000000000000000081525060200191505060405180910390fd5b6040518061010001604052803373ffffffffffffffffffffffffffffffffffffffff1681526020018973ffffffffffffffffffffffffffffffffffffffff1681526020018888905081526020018381526020018681526020018581526020016000151581526020016000151581525060008085815260200190815260200160002060008201518160000160006101000a81548173ffffffffffffffffffffffffffffffffffffffff021916908373ffffffffffffffffffffffffffffffffffffffff16021790555060208201518160010160006101000a81548173ffffffffffffffffffffffffffffffffffffffff021916908373ffffffffffffffffffffffffffffffffffffffff16021790555060408201518160020155606082015181600301556080820151816004015560a0820151816005015560c08201518160060160006101000a81548160ff02191690831515021790555060e08201518160060160016101000a81548160ff0219169083151502179055509050508773ffffffffffffffffffffffffffffffffffffffff163373ffffffffffffffffffffffffffffffffffffffff16847faaf55124936f37092a97ed9d3cb641a835630620bdd8818f643880f05b06c2f88a8a9050868a8a6040518085815260200184815260200183815260200182815260200194505050505060405180910390a4827ff4cd1c8eb17a83235f7be681af8b9d7595454d04f114054db2aece5bfc4af83b888860405180806020018281038252848482818152602001925060200280828437600081840152601f19601f820116905080830192505050935050505060405180910390a2509550959350505050565b60008060008060008060008060008060008b815260200190815260200160002090508060000160009054906101000a900473ffffffffffffffffffffffffffffffffffffffff168160010160009054906101000a900473ffffffffffffffffffffffffffffffffffffffff1682600201548360030154846004015485600501548660060160009054906101000a900460ff168760060160019054906101000a900460ff16985098509850985098509850985098505091939597509193959756fe74696d656c6f636b2074696d65206d75737420626520696e2074686520667574757265a265627a7a7231582077a9c34330c4779d9bce72944e5e15fd233dab6ff2dec233efdf97ef9fe8b59364736f6c63430005100032",
  "source": "// SPDX-License-Identifier: MIT\npragma solidity ^0.5.0;\n\n/**\n * CIDBatchLog\n *\n * Purpose:\n * - Handle a batch of CIDs (modeled as bytes32 digests).\n * - Deterministically concatenate (packed) them and hash the result.\n * - Release that aggregate hash to the receiver (explicit on-chain event).\n * - Log creation / release / optional proof verification.\n *\n * Notes:\n * - \"CID\" here is the 32-byte digest representation (0x + 64 hex chars).\n * - Aggregation uses sha256(abi.encodePacked(count, cid1, cid2, ...))\n *   including count to avoid ambiguous encodings.\n * - We do NOT store the full CID list in storage by default (gas).\n *   Instead, we emit it in an event at creation time.\n */\ncontract CIDBatchLog {\n\n    event BatchCreated(\n        bytes32 indexed batchId,\n        address indexed sender,\n        address indexed receiver,\n        uint cidCount,\n        bytes32 aggregateHash,   // sha256(count || cid1 || cid2 || ...)\n        bytes32 messageHash,     // optional keccak256(message)\n        uint timelock\n    );\n\n    event CIDsLogged(\n        bytes32 indexed batchId,\n        bytes32[] cids\n    );\n\n    event AggregateReleased(\n        bytes32 indexed batchId,\n        bytes32 aggregateHash\n    );\n\n    event BatchVerified(\n        bytes32 indexed batchId,\n        address indexed verifier\n    );\n\n    struct Batch {\n        address sender;\n        address receiver;\n        uint cidCount;\n        bytes32 aggregateHash;\n        bytes32 messageHash;   // optional commitment to a message\n        uint timelock;\n        bool released;\n        bool verified;\n    }\n\n    mapping(bytes32 => Batch) public batches;\n\n    modifier futureTimelock(uint _time) {\n        require(_time > now, \"timelock time must be in the future\");\n        _;\n    }\n\n    modifier batchExists(bytes32 _batchId) {\n        require(batches[_batchId].sender != address(0), \"batch does not exist\");\n        _;\n    }\n\n    modifier onlySender(bytes32 _batchId) {\n        require(msg.sender == batches[_batchId].sender, \"only sender\");\n        _;\n    }\n\n    modifier onlyReceiver(bytes32 _batchId) {\n        require(msg.sender == batches[_batchId].receiver, \"only receiver\");\n        _;\n    }\n\n    modifier notReleased(bytes32 _batchId) {\n        require(!batches[_batchId].released, \"already released\");\n        _;\n    }\n\n    modifier notVerified(bytes32 _batchId) {\n        require(!batches[_batchId].verified, \"already verified\");\n        _;\n    }\n\n    /**\n     * @dev Deterministic aggregation of a CID list.\n     * Includes length to avoid ambiguity.\n     */\n    function computeAggregate(bytes32[] memory _cids)\n        public\n        pure\n        returns (bytes32)\n    {\n        return sha256(abi.encodePacked(uint256(_cids.length), _cids));\n    }\n\n    function createBatch(\n        address _receiver,\n        bytes32[] calldata _cids,\n        bytes32 _messageHash,\n        uint _timelock\n    )\n        external\n        futureTimelock(_timelock)\n        returns (bytes32 batchId, bytes32 aggregateHash)\n    {\n        require(_receiver != address(0), \"receiver=0\");\n        require(_cids.length > 0, \"empty CID list\");\n\n        aggregateHash = computeAggregate(_cids);\n\n        batchId = sha256(\n            abi.encodePacked(\n                msg.sender,\n                _receiver,\n                aggregateHash,\n                _messageHash,\n                _timelock\n            )\n        );\n\n        require(batches[batchId].sender == address(0), \"batch exists\");\n\n        batches[batchId] = Batch(\n            msg.sender,\n            _receiver,\n            _cids.length,\n            aggregateHash,\n            _messageHash,\n            _timelock,\n            false,\n            false\n        );\n\n        emit BatchCreated(\n            batchId,\n            msg.sender,\n            _receiver,\n            _cids.length,\n            aggregateHash,\n            _messageHash,\n            _timelock\n        );\n\n        // Logs the full CID list without storing it in contract storage\n        emit CIDsLogged(batchId, _cids);\n    }\n\n    function releaseAggregate(bytes32 _batchId)\n        external\n        batchExists(_batchId)\n        onlySender(_batchId)\n        notReleased(_batchId)\n        returns (bytes32 aggregateHash)\n    {\n        Batch storage b = batches[_batchId];\n        b.released = true;\n\n        emit AggregateReleased(_batchId, b.aggregateHash);\n        return b.aggregateHash;\n    }\n\n    /**\n     * @dev Receiver (or anyone) proves a CID list matches the stored aggregate commitment.\n     * Useful for \"user independently checks inclusion\" in your paper.\n     */\n    function verifyCIDs(bytes32 _batchId, bytes32[] calldata _cids)\n        external\n        batchExists(_batchId)\n        notVerified(_batchId)\n        returns (bool)\n    {\n        Batch storage b = batches[_batchId];\n        require(_cids.length == b.cidCount, \"CID count mismatch\");\n        require(computeAggregate(_cids) == b.aggregateHash, \"aggregate mismatch\");\n\n        b.verified = true;\n        emit BatchVerified(_batchId, msg.sender);\n        return true;\n    }\n\n    function verifyMessage(bytes32 _batchId, bytes calldata _message)\n        external\n        batchExists(_batchId)\n        returns (bool)\n    {\n        Batch storage b = batches[_batchId];\n        require(b.messageHash != bytes32(0), \"no messageHash set\");\n        require(keccak256(_message) == b.messageHash, \"message hash mismatch\");\n        return true;\n    }\n\n    function getBatch(bytes32 _batchId)\n        external\n        view\n        returns (\n            address sender,\n            address receiver,\n            uint cidCount,\n            bytes32 aggregateHash,\n            bytes32 messageHash,\n            uint timelock,\n            bool released,\n            bool verified\n        )\n    {\n        Batch storage b = batches[_batchId];\n        return (\n            b.sender,\n            b.receiver,\n            b.cidCount,\n            b.aggregateHash,\n            b.messageHash,\n            b.timelock,\n            b.released,\n            b.verified\n        );\n    }\n}\n\n",
  "sourcePath": "/home/shady/Github/FairTradeExt/contracts/CIDBatchLog.sol",
  "compiler": {
    "name": "solc",
    "version": "0.5.16+commit.9c3226ce.Emscripten.clang"
  },
  "schemaVersion": "3.4.16",
  "updatedAt": "2026-01-04T00:43:42.053Z",
  "networkType": "ethereum",
  "devdoc": {
    "methods": {
      "computeAggregate(bytes32[])": {
        "details": "Deterministic aggregation of a CID list. Includes length to avoid ambiguity."
      },
      "verifyCIDs(bytes32,bytes32[])": {
        "details": "Receiver (or anyone) proves a CID list matches the stored aggregate commitment. Useful for \"user independently checks inclusion\" in your paper."
      }
    }
  },
  "userdoc": {
    "methods": {},
    "notice": "CIDBatchLog * Purpose: - Handle a batch of CIDs (modeled as bytes32 digests). - Deterministically concatenate (packed) them and hash the result. - Release that aggregate hash to the receiver (explicit on-chain event). - Log creation / release / optional proof verification. * Notes: - \"CID\" here is the 32-byte digest representation (0x + 64 hex chars). - Aggregation uses sha256(abi.encodePacked(count, cid1, cid2, ...))  including count to avoid ambiguous encodings. - We do NOT store the full CID list in storage by default (gas).  Instead, we emit it in an event at creation time."
  }
}