{
  "contractName": "Commitment",
  "abi": [
    {
      "anonymous": false,
      "inputs": [
        {
          "indexed": true,
          "internalType": "bytes32",
          "name": "currentRoot",
          "type": "bytes32"
        },
        {
          "indexed": true,
          "internalType": "uint256",
          "name": "calTotal",
          "type": "uint256"
        }
      ],
      "name": "Results",
      "type": "event"
    },
    {
      "constant": true,
      "inputs": [
        {
          "internalType": "uint256",
          "name": "",
          "type": "uint256"
        }
      ],
      "name": "hashCounts",
      "outputs": [
        {
          "internalType": "uint256",
          "name": "",
          "type": "uint256"
        }
      ],
      "payable": false,
      "stateMutability": "view",
      "type": "function"
    },
    {
      "constant": false,
      "inputs": [
        {
          "internalType": "bytes32[]",
          "name": "data_list",
          "type": "bytes32[]"
        },
        {
          "internalType": "uint256[]",
          "name": "sale_num",
          "type": "uint256[]"
        },
        {
          "internalType": "uint256[]",
          "name": "sale_list",
          "type": "uint256[]"
        }
      ],
      "name": "validateCommitment",
      "outputs": [],
      "payable": false,
      "stateMutability": "nonpayable",
      "type": "function"
    }
  ],
  "bytecode": "0x608060405234801561001057600080fd5b50610833806100206000396000f3fe608060405234801561001057600080fd5b50600436106100365760003560e01c80635ec2f4e11461003b5780639403cb0b1461021b575b600080fd5b6102196004803603606081101561005157600080fd5b810190808035906020019064010000000081111561006e57600080fd5b82018360208201111561008057600080fd5b803590602001918460208302840111640100000000831117156100a257600080fd5b919080806020026020016040519081016040528093929190818152602001838360200280828437600081840152601f19601f8201169050808301925050505050505091929192908035906020019064010000000081111561010257600080fd5b82018360208201111561011457600080fd5b8035906020019184602083028401116401000000008311171561013657600080fd5b919080806020026020016040519081016040528093929190818152602001838360200280828437600081840152601f19601f8201169050808301925050505050505091929192908035906020019064010000000081111561019657600080fd5b8201836020820111156101a857600080fd5b803590602001918460208302840111640100000000831117156101ca57600080fd5b919080806020026020016040519081016040528093929190818152602001838360200280828437600081840152601f19601f82011690508083019250505050505050919291929050505061025d565b005b6102476004803603602081101561023157600080fd5b81019080803590602001909291905050506107c3565b6040518082815260200191505060405180910390f35b60008351116102d4576040517f08c379a000000000000000000000000000000000000000000000000000000000815260040180806020018281038252601b8152602001807f44617461206c697374206d757374206e6f7420626520656d707479000000000081525060200191505060405180910390fd5b600082511161034b576040517f08c379a000000000000000000000000000000000000000000000000000000000815260040180806020018281038252601d8152602001807f53616c65206e756d626572206d757374206e6f7420626520656d70747900000081525060200191505060405180910390fd5b60008151116103c2576040517f08c379a000000000000000000000000000000000000000000000000000000000815260040180806020018281038252601b8152602001807f53616c65206c697374206d757374206e6f7420626520656d707479000000000081525060200191505060405180910390fd5b600081519050600080905060008090505b8451811015610401578481815181106103e857fe5b60200260200101518201915080806001019150506103d3565b5081811461045a576040517f08c379a00000000000000000000000000000000000000000000000000000000081526004018080602001828103825260238152602001806107dc6023913960400191505060405180910390fd5b60008060001b905060008090505b8381101561050757818786838151811061047e57fe5b60200260200101518151811061049057fe5b602002602001015160405160200180838152602001828152602001925050506040516020818303038152906040528051906020012091506001868683815181106104d657fe5b6020026020010151815181106104e857fe5b6020026020010181815103915081815250508080600101915050610468565b5060008090505b85518110156105ad57600086828151811061052557fe5b6020026020010151146105a0576040517f08c379a00000000000000000000000000000000000000000000000000000000081526004018080602001828103825260168152602001807f53616c65206e756d626572206d757374206d617463680000000000000000000081525060200191505060405180910390fd5b808060010191505061050e565b506000865190505b600181111561077857600080905060008090505b60028303811015610655578881815181106105e057fe5b60200260200101518960018301815181106105f757fe5b602002602001015160405160200180838152602001828152602001925050506040516020818303038152906040528051906020012089838151811061063857fe5b6020026020010181815250506001820191506002810190506105c9565b5060016002838161066257fe5b0614156106f15787600183038151811061067857fe5b602002602001015188600184038151811061068f57fe5b60200260200101516040516020018083815260200182815260200192505050604051602081830303815290604052805190602001208882815181106106d057fe5b6020026020010181815250506001600283816106e857fe5b04019150610772565b87600183038151811061070057fe5b602002602001015188600284038151811061071757fe5b602002602001015160405160200180838152602001828152602001925050506040516020818303038152906040528051906020012088828151811061075857fe5b6020026020010181815250506002828161076e57fe5b0491505b506105b5565b828760008151811061078657fe5b60200260200101517f054c12cf475c47c6d7adbdf8ee56c413c879ee319c0aed29512fb9be8e992e7660405160405180910390a350505050505050565b6000602052806000526040600020600091509050548156fe546f74616c207472616e73616374696f6e206e756d626572206d757374206d61746368a265627a7a723158205cacaf2841529cff6686998885dd5ba3b2e5d3d2fb22da3e62aea89f2317b8c364736f6c63430005100032",
  "source": "// SPDX-License-Identifier: MIT\npragma solidity ^0.5.0;\n\ncontract Commitment {\n\n    event Results(bytes32 indexed currentRoot, uint256 indexed calTotal);\n    // event Res(uint256 indexed tempTotal);\n\n    mapping(uint256 => uint256) public hashCounts;\n\n    function validateCommitment(bytes32[] memory data_list, uint256[] memory sale_num, uint256[] memory sale_list) public {\n        require(data_list.length > 0, \"Data list must not be empty\");\n        require(sale_num.length > 0, \"Sale number must not be empty\");\n        require(sale_list.length > 0, \"Sale list must not be empty\");\n\n        uint256 epochSize = sale_list.length;    //Total number of sale\n        uint256 total = 0;\n        \n        for (uint256 i = 0; i < sale_num.length; i++) {\n            total += sale_num[i];\n        }\n        // emit Res(total);\n        require(total == epochSize, \"Total transaction number must match\");\n        \n        bytes32 currentHash = bytes32(0);\n\n        // Iterate through the sale list and calculate the hash chain\n        for (uint256 i = 0; i < epochSize; i++) {\n            currentHash = keccak256(abi.encodePacked(currentHash, data_list[sale_list[i]]));\n            // hashCounts[sale_list[i]] += 1;\n            sale_num[sale_list[i]] -= 1;\n        }\n\n        for (uint256 i = 0; i < sale_num.length; i++) {\n            require(sale_num[i] == 0, \"Sale number must match\");\n        }\n\n        // Iterate through the array of hash values and calculate the hash chain\n        uint256 treeSize = data_list.length;\n        while (treeSize > 1) {\n            uint256 j = 0;\n            for (uint256 i = 0; i < treeSize - 2; i += 2) {\n                data_list[j] = keccak256(abi.encodePacked(data_list[i],data_list[i+1]));\n                j += 1;\n            }\n            if (treeSize % 2 == 1) {\n                data_list[j] = keccak256(abi.encodePacked(data_list[treeSize-1],data_list[treeSize-1]));\n                treeSize = treeSize / 2 + 1;\n            } else {\n                data_list[j] = keccak256(abi.encodePacked(data_list[treeSize-1],data_list[treeSize-2]));\n                treeSize = treeSize / 2;\n            }\n        }\n\n        emit Results(data_list[0], total);\n\n        }\n}",
  "sourcePath": "/home/shady/Github/FairTradeExt/contracts/Commitment.sol",
  "compiler": {
    "name": "solc",
    "version": "0.5.16+commit.9c3226ce.Emscripten.clang"
  },
  "schemaVersion": "3.4.16",
  "updatedAt": "2026-01-04T00:43:42.039Z",
  "networkType": "ethereum",
  "devdoc": {
    "methods": {}
  },
  "userdoc": {
    "methods": {}
  }
}