{
  "contractName": "HashedTimelockLog",
  "abi": [
    {
      "anonymous": false,
      "inputs": [
        {
          "indexed": true,
          "internalType": "bytes32",
          "name": "contractId",
          "type": "bytes32"
        },
        {
          "indexed": true,
          "internalType": "address",
          "name": "sender",
          "type": "address"
        },
        {
          "indexed": true,
          "internalType": "address",
          "name": "receiver",
          "type": "address"
        },
        {
          "indexed": false,
          "internalType": "bytes32",
          "name": "hashlock",
          "type": "bytes32"
        },
        {
          "indexed": false,
          "internalType": "bytes32",
          "name": "messageHash",
          "type": "bytes32"
        },
        {
          "indexed": false,
          "internalType": "uint256",
          "name": "timelock",
          "type": "uint256"
        }
      ],
      "name": "LogHTLCNew",
      "type": "event"
    },
    {
      "anonymous": false,
      "inputs": [
        {
          "indexed": true,
          "internalType": "bytes32",
          "name": "contractId",
          "type": "bytes32"
        }
      ],
      "name": "LogVerified",
      "type": "event"
    },
    {
      "constant": false,
      "inputs": [
        {
          "internalType": "address",
          "name": "_receiver",
          "type": "address"
        },
        {
          "internalType": "bytes32",
          "name": "_hashlock",
          "type": "bytes32"
        },
        {
          "internalType": "bytes32",
          "name": "_messageHash",
          "type": "bytes32"
        },
        {
          "internalType": "uint256",
          "name": "_timelock",
          "type": "uint256"
        }
      ],
      "name": "newContract",
      "outputs": [
        {
          "internalType": "bytes32",
          "name": "contractId",
          "type": "bytes32"
        }
      ],
      "payable": false,
      "stateMutability": "nonpayable",
      "type": "function"
    },
    {
      "constant": false,
      "inputs": [
        {
          "internalType": "bytes32",
          "name": "_contractId",
          "type": "bytes32"
        },
        {
          "internalType": "bytes",
          "name": "_message",
          "type": "bytes"
        }
      ],
      "name": "verifyLog",
      "outputs": [
        {
          "internalType": "bool",
          "name": "",
          "type": "bool"
        }
      ],
      "payable": false,
      "stateMutability": "nonpayable",
      "type": "function"
    },
    {
      "constant": true,
      "inputs": [
        {
          "internalType": "bytes32",
          "name": "_contractId",
          "type": "bytes32"
        }
      ],
      "name": "getContract",
      "outputs": [
        {
          "internalType": "address",
          "name": "sender",
          "type": "address"
        },
        {
          "internalType": "address",
          "name": "receiver",
          "type": "address"
        },
        {
          "internalType": "bytes32",
          "name": "hashlock",
          "type": "bytes32"
        },
        {
          "internalType": "bytes32",
          "name": "messageHash",
          "type": "bytes32"
        },
        {
          "internalType": "uint256",
          "name": "timelock",
          "type": "uint256"
        },
        {
          "internalType": "bool",
          "name": "verified",
          "type": "bool"
        }
      ],
      "payable": false,
      "stateMutability": "view",
      "type": "function"
    }
  ],
  "bytecode": "0x608060405234801561001057600080fd5b50610b36806100206000396000f3fe608060405234801561001057600080fd5b50600436106100415760003560e01c806317dd0d4014610046578063aaa8b9d2146100e1578063e16c7d9814610157575b600080fd5b6100c76004803603604081101561005c57600080fd5b81019080803590602001909291908035906020019064010000000081111561008357600080fd5b82018360208201111561009557600080fd5b803590602001918460018302840111640100000000831117156100b757600080fd5b9091929391929390505050610218565b604051808215151515815260200191505060405180910390f35b610141600480360360808110156100f757600080fd5b81019080803573ffffffffffffffffffffffffffffffffffffffff169060200190929190803590602001909291908035906020019092919080359060200190929190505050610570565b6040518082815260200191505060405180910390f35b6101836004803603602081101561016d57600080fd5b8101908080359060200190929190505050610a3e565b604051808773ffffffffffffffffffffffffffffffffffffffff1673ffffffffffffffffffffffffffffffffffffffff1681526020018673ffffffffffffffffffffffffffffffffffffffff1673ffffffffffffffffffffffffffffffffffffffff16815260200185815260200184815260200183815260200182151515158152602001965050505050505060405180910390f35b600083600073ffffffffffffffffffffffffffffffffffffffff1660008083815260200190815260200160002060000160009054906101000a900473ffffffffffffffffffffffffffffffffffffffff1673ffffffffffffffffffffffffffffffffffffffff1614156102f3576040517f08c379a00000000000000000000000000000000000000000000000000000000081526004018080602001828103825260178152602001807f636f6e747261637420646f6573206e6f7420657869737400000000000000000081525060200191505060405180910390fd5b8460008082815260200190815260200160002060050160009054906101000a900460ff161561038a576040517f08c379a00000000000000000000000000000000000000000000000000000000081526004018080602001828103825260108152602001807f616c72656164792076657269666965640000000000000000000000000000000081525060200191505060405180910390fd5b60008087815260200190815260200160002060010160009054906101000a900473ffffffffffffffffffffffffffffffffffffffff1673ffffffffffffffffffffffffffffffffffffffff163373ffffffffffffffffffffffffffffffffffffffff1614610460576040517f08c379a000000000000000000000000000000000000000000000000000000000815260040180806020018281038252600d8152602001807f6f6e6c792072656365697665720000000000000000000000000000000000000081525060200191505060405180910390fd5b600080878152602001908152602001600020600301548585604051808383808284378083019250505092505050604051809103902014610508576040517f08c379a00000000000000000000000000000000000000000000000000000000081526004018080602001828103825260158152602001807f6d6573736167652068617368206d69736d61746368000000000000000000000081525060200191505060405180910390fd5b600160008088815260200190815260200160002060050160006101000a81548160ff021916908315150217905550857f6845a304bfd125ab8b3faf73f262ab11399e47a6be9eba032093ab5b9221cace60405160405180910390a26001925050509392505050565b6000814281116105cb576040517f08c379a0000000000000000000000000000000000000000000000000000000008152600401808060200182810382526023815260200180610adf6023913960400191505060405180910390fd5b600073ffffffffffffffffffffffffffffffffffffffff168673ffffffffffffffffffffffffffffffffffffffff16141561066e576040517f08c379a000000000000000000000000000000000000000000000000000000000815260040180806020018281038252600a8152602001807f72656365697665723d300000000000000000000000000000000000000000000081525060200191505060405180910390fd5b60023387878787604051602001808673ffffffffffffffffffffffffffffffffffffffff1673ffffffffffffffffffffffffffffffffffffffff1660601b81526014018573ffffffffffffffffffffffffffffffffffffffff1673ffffffffffffffffffffffffffffffffffffffff1660601b8152601401848152602001838152602001828152602001955050505050506040516020818303038152906040526040518082805190602001908083835b60208310610741578051825260208201915060208101905060208303925061071e565b6001836020036101000a038019825116818451168082178552505050505050905001915050602060405180830381855afa158015610783573d6000803e3d6000fd5b5050506040513d602081101561079857600080fd5b81019080805190602001909291905050509150600073ffffffffffffffffffffffffffffffffffffffff1660008084815260200190815260200160002060000160009054906101000a900473ffffffffffffffffffffffffffffffffffffffff1673ffffffffffffffffffffffffffffffffffffffff1614610882576040517f08c379a000000000000000000000000000000000000000000000000000000000815260040180806020018281038252600f8152602001807f636f6e747261637420657869737473000000000000000000000000000000000081525060200191505060405180910390fd5b6040518060c001604052803373ffffffffffffffffffffffffffffffffffffffff1681526020018773ffffffffffffffffffffffffffffffffffffffff1681526020018681526020018581526020018481526020016000151581525060008084815260200190815260200160002060008201518160000160006101000a81548173ffffffffffffffffffffffffffffffffffffffff021916908373ffffffffffffffffffffffffffffffffffffffff16021790555060208201518160010160006101000a81548173ffffffffffffffffffffffffffffffffffffffff021916908373ffffffffffffffffffffffffffffffffffffffff16021790555060408201518160020155606082015181600301556080820151816004015560a08201518160050160006101000a81548160ff0219169083151502179055509050508573ffffffffffffffffffffffffffffffffffffffff163373ffffffffffffffffffffffffffffffffffffffff16837f245136a4b47c51860ae960f4e5ffa175bdce03d55a8833dc5530b637e9fe7ec288888860405180848152602001838152602001828152602001935050505060405180910390a450949350505050565b600080600080600080600080600089815260200190815260200160002090508060000160009054906101000a900473ffffffffffffffffffffffffffffffffffffffff168160010160009054906101000a900473ffffffffffffffffffffffffffffffffffffffff168260020154836003015484600401548560050160009054906101000a900460ff16965096509650965096509650509193955091939556fe74696d656c6f636b2074696d65206d75737420626520696e2074686520667574757265a265627a7a7231582058f24deb64cb61dd7cc60063f28fb4b4bec91862b75353d0cdc4732b5981662264736f6c63430005100032",
  "source": "// SPDX-License-Identifier: MIT\npragma solidity ^0.5.0;\n\n/**\n * Logging-only HTLC (32-byte CID-digest style).\n *\n * - No ETH transfers\n * - No withdraw/refund lifecycle\n * - 32-byte preimage digest is committed via sha256 (hashlock)\n * - timelock used as a \"valid-after/valid-until\" metadata field (creation sanity check)\n * - verifiable message logging (receiver can verify message preimage against messageHash)\n */\ncontract HashedTimelockLog {\n\n    /* ───────────── Events ───────────── */\n\n    event LogHTLCNew(\n        bytes32 indexed contractId,\n        address indexed sender,\n        address indexed receiver,\n        bytes32 hashlock,\n        bytes32 messageHash,\n        uint timelock\n    );\n\n    event LogVerified(bytes32 indexed contractId);\n\n    /* ───────────── Storage ───────────── */\n\n    struct LockContract {\n        address sender;\n        address receiver;\n        bytes32 hashlock;      // sha256(abi.encodePacked(preimage32))\n        bytes32 messageHash;   // keccak256(message)\n        uint timelock;\n        bool verified;\n    }\n\n    mapping (bytes32 => LockContract) internal contracts;\n\n    /* ───────────── Modifiers ───────────── */\n\n    modifier futureTimelock(uint _time) {\n        require(_time > now, \"timelock time must be in the future\");\n        _;\n    }\n\n    modifier contractExists(bytes32 _contractId) {\n        require(contracts[_contractId].sender != address(0), \"contract does not exist\");\n        _;\n    }\n\n    modifier notVerified(bytes32 _contractId) {\n        require(!contracts[_contractId].verified, \"already verified\");\n        _;\n    }\n\n    /* ───────────── Create ───────────── */\n\n    function newContract(\n        address _receiver,\n        bytes32 _hashlock,\n        bytes32 _messageHash,\n        uint _timelock\n    )\n        external\n        futureTimelock(_timelock)\n        returns (bytes32 contractId)\n    {\n        require(_receiver != address(0), \"receiver=0\");\n\n        contractId = sha256(\n            abi.encodePacked(\n                msg.sender,\n                _receiver,\n                _hashlock,\n                _messageHash,\n                _timelock\n            )\n        );\n\n        require(contracts[contractId].sender == address(0), \"contract exists\");\n\n        // IMPORTANT: struct has 6 fields, so provide exactly 6 values.\n        contracts[contractId] = LockContract(\n            msg.sender,\n            _receiver,\n            _hashlock,\n            _messageHash,\n            _timelock,\n            false\n        );\n\n        emit LogHTLCNew(\n            contractId,\n            msg.sender,\n            _receiver,\n            _hashlock,\n            _messageHash,\n            _timelock\n        );\n    }\n\n    /* ───────────── Verification ───────────── */\n\n    function verifyLog(bytes32 _contractId, bytes calldata _message)\n        external\n        contractExists(_contractId)\n        notVerified(_contractId)\n        returns (bool)\n    {\n        require(msg.sender == contracts[_contractId].receiver, \"only receiver\");\n\n        require(\n            keccak256(_message) == contracts[_contractId].messageHash,\n            \"message hash mismatch\"\n        );\n\n        contracts[_contractId].verified = true;\n        emit LogVerified(_contractId);\n        return true;\n    }\n\n    /* ───────────── View ───────────── */\n\n    function getContract(bytes32 _contractId)\n        external\n        view\n        returns (\n            address sender,\n            address receiver,\n            bytes32 hashlock,\n            bytes32 messageHash,\n            uint timelock,\n            bool verified\n        )\n    {\n        LockContract storage c = contracts[_contractId];\n        return (\n            c.sender,\n            c.receiver,\n            c.hashlock,\n            c.messageHash,\n            c.timelock,\n            c.verified\n        );\n    }\n}\n\n",
  "sourcePath": "/home/shady/Github/FairTradeExt/contracts/HashedTimelockLog.sol",
  "compiler": {
    "name": "solc",
    "version": "0.5.16+commit.9c3226ce.Emscripten.clang"
  },
  "schemaVersion": "3.4.16",
  "updatedAt": "2026-01-04T00:43:42.050Z",
  "networkType": "ethereum",
  "devdoc": {
    "methods": {}
  },
  "userdoc": {
    "methods": {},
    "notice": "Logging-only HTLC (32-byte CID-digest style). * - No ETH transfers - No withdraw/refund lifecycle - 32-byte preimage digest is committed via sha256 (hashlock) - timelock used as a \"valid-after/valid-until\" metadata field (creation sanity check) - verifiable message logging (receiver can verify message preimage against messageHash)"
  }
}