{
  "contractName": "JustForTest",
  "abi": [
    {
      "anonymous": false,
      "inputs": [
        {
          "indexed": true,
          "internalType": "bytes32",
          "name": "contractId",
          "type": "bytes32"
        },
        {
          "indexed": true,
          "internalType": "address",
          "name": "sender",
          "type": "address"
        },
        {
          "indexed": true,
          "internalType": "address",
          "name": "receiver",
          "type": "address"
        },
        {
          "indexed": false,
          "internalType": "bytes32",
          "name": "datahash",
          "type": "bytes32"
        },
        {
          "indexed": false,
          "internalType": "uint256",
          "name": "amount",
          "type": "uint256"
        },
        {
          "indexed": false,
          "internalType": "uint256",
          "name": "sk1x",
          "type": "uint256"
        },
        {
          "indexed": false,
          "internalType": "uint256",
          "name": "sk1y",
          "type": "uint256"
        },
        {
          "indexed": false,
          "internalType": "uint256",
          "name": "timelock",
          "type": "uint256"
        }
      ],
      "name": "LogHTLCNew",
      "type": "event"
    },
    {
      "anonymous": false,
      "inputs": [
        {
          "indexed": true,
          "internalType": "bytes32",
          "name": "contractId",
          "type": "bytes32"
        }
      ],
      "name": "LogHTLCRefund",
      "type": "event"
    },
    {
      "anonymous": false,
      "inputs": [
        {
          "indexed": true,
          "internalType": "bytes32",
          "name": "contractId",
          "type": "bytes32"
        }
      ],
      "name": "LogHTLCWithdraw",
      "type": "event"
    },
    {
      "constant": true,
      "inputs": [],
      "name": "AA",
      "outputs": [
        {
          "internalType": "uint256",
          "name": "",
          "type": "uint256"
        }
      ],
      "payable": false,
      "stateMutability": "view",
      "type": "function"
    },
    {
      "constant": true,
      "inputs": [],
      "name": "GX",
      "outputs": [
        {
          "internalType": "uint256",
          "name": "",
          "type": "uint256"
        }
      ],
      "payable": false,
      "stateMutability": "view",
      "type": "function"
    },
    {
      "constant": true,
      "inputs": [],
      "name": "GY",
      "outputs": [
        {
          "internalType": "uint256",
          "name": "",
          "type": "uint256"
        }
      ],
      "payable": false,
      "stateMutability": "view",
      "type": "function"
    },
    {
      "constant": true,
      "inputs": [],
      "name": "PP",
      "outputs": [
        {
          "internalType": "uint256",
          "name": "",
          "type": "uint256"
        }
      ],
      "payable": false,
      "stateMutability": "view",
      "type": "function"
    },
    {
      "constant": true,
      "inputs": [
        {
          "internalType": "bytes32",
          "name": "",
          "type": "bytes32"
        }
      ],
      "name": "counters",
      "outputs": [
        {
          "internalType": "uint256",
          "name": "",
          "type": "uint256"
        }
      ],
      "payable": false,
      "stateMutability": "view",
      "type": "function"
    },
    {
      "constant": false,
      "inputs": [
        {
          "internalType": "address payable",
          "name": "_receiver",
          "type": "address"
        },
        {
          "internalType": "bytes32",
          "name": "_datahash",
          "type": "bytes32"
        },
        {
          "internalType": "uint256",
          "name": "_sk1x",
          "type": "uint256"
        },
        {
          "internalType": "uint256",
          "name": "_sk1y",
          "type": "uint256"
        },
        {
          "internalType": "uint256",
          "name": "_timelock",
          "type": "uint256"
        }
      ],
      "name": "newContract",
      "outputs": [
        {
          "internalType": "bytes32",
          "name": "contractId",
          "type": "bytes32"
        }
      ],
      "payable": true,
      "stateMutability": "payable",
      "type": "function"
    },
    {
      "constant": false,
      "inputs": [
        {
          "internalType": "bytes32",
          "name": "txHash",
          "type": "bytes32"
        }
      ],
      "name": "increment",
      "outputs": [],
      "payable": false,
      "stateMutability": "nonpayable",
      "type": "function"
    },
    {
      "constant": false,
      "inputs": [
        {
          "internalType": "bytes32",
          "name": "_contractId",
          "type": "bytes32"
        },
        {
          "internalType": "uint256",
          "name": "_sk2",
          "type": "uint256"
        }
      ],
      "name": "withdraw",
      "outputs": [
        {
          "internalType": "bool",
          "name": "",
          "type": "bool"
        }
      ],
      "payable": false,
      "stateMutability": "nonpayable",
      "type": "function"
    },
    {
      "constant": false,
      "inputs": [
        {
          "internalType": "bytes32",
          "name": "_contractId",
          "type": "bytes32"
        }
      ],
      "name": "refund",
      "outputs": [
        {
          "internalType": "bool",
          "name": "",
          "type": "bool"
        }
      ],
      "payable": false,
      "stateMutability": "nonpayable",
      "type": "function"
    },
    {
      "constant": true,
      "inputs": [
        {
          "internalType": "bytes32",
          "name": "_contractId",
          "type": "bytes32"
        }
      ],
      "name": "getContract",
      "outputs": [
        {
          "internalType": "address",
          "name": "sender",
          "type": "address"
        },
        {
          "internalType": "address",
          "name": "receiver",
          "type": "address"
        },
        {
          "internalType": "bytes32",
          "name": "datahash",
          "type": "bytes32"
        },
        {
          "internalType": "uint256",
          "name": "amount",
          "type": "uint256"
        },
        {
          "internalType": "uint256",
          "name": "sk1x",
          "type": "uint256"
        },
        {
          "internalType": "uint256",
          "name": "sk1y",
          "type": "uint256"
        },
        {
          "internalType": "uint256",
          "name": "timelock",
          "type": "uint256"
        },
        {
          "internalType": "bool",
          "name": "withdrawn",
          "type": "bool"
        },
        {
          "internalType": "bool",
          "name": "refunded",
          "type": "bool"
        }
      ],
      "payable": false,
      "stateMutability": "view",
      "type": "function"
    }
  ],
  "bytecode": "0x608060405234801561001057600080fd5b50611c14806100206000396000f3fe6080604052600436106100915760003560e01c80637249fbb6116100595780637249fbb6146102285780637a308a4c1461027b578063997da8d4146102a6578063e16c7d98146102d1578063eeeac01e146103b857610091565b806303a507be14610096578063040cf020146100c15780633c882a6b1461011e57806340c443b31461016d57806358541662146101a8575b600080fd5b3480156100a257600080fd5b506100ab6103e3565b6040518082815260200191505060405180910390f35b3480156100cd57600080fd5b50610104600480360360408110156100e457600080fd5b810190808035906020019092919080359060200190929190505050610407565b604051808215151515815260200191505060405180910390f35b34801561012a57600080fd5b506101576004803603602081101561014157600080fd5b81019080803590602001909291905050506108e1565b6040518082815260200191505060405180910390f35b34801561017957600080fd5b506101a66004803603602081101561019057600080fd5b81019080803590602001909291905050506108f9565b005b610212600480360360a08110156101be57600080fd5b81019080803573ffffffffffffffffffffffffffffffffffffffff16906020019092919080359060200190929190803590602001909291908035906020019092919080359060200190929190505050610959565b6040518082815260200191505060405180910390f35b34801561023457600080fd5b506102616004803603602081101561024b57600080fd5b8101908080359060200190929190505050610d74565b604051808215151515815260200191505060405180910390f35b34801561028757600080fd5b5061029061114a565b6040518082815260200191505060405180910390f35b3480156102b257600080fd5b506102bb61116e565b6040518082815260200191505060405180910390f35b3480156102dd57600080fd5b5061030a600480360360208110156102f457600080fd5b8101908080359060200190929190505050611173565b604051808a73ffffffffffffffffffffffffffffffffffffffff1673ffffffffffffffffffffffffffffffffffffffff1681526020018973ffffffffffffffffffffffffffffffffffffffff1673ffffffffffffffffffffffffffffffffffffffff1681526020018881526020018781526020018681526020018581526020018481526020018315151515815260200182151515158152602001995050505050505050505060405180910390f35b3480156103c457600080fd5b506103cd611292565b6040518082815260200191505060405180910390f35b7f79be667ef9dcbbac55a06295ce870b07029bfcdb2dce28d959f2815b16f8179881565b600082610413816112b6565b610485576040517f08c379a00000000000000000000000000000000000000000000000000000000081526004018080602001828103825260198152602001807f636f6e7472616374496420646f6573206e6f742065786973740000000000000081525060200191505060405180910390fd5b83836000806104f8837f79be667ef9dcbbac55a06295ce870b07029bfcdb2dce28d959f2815b16f817987f483ada7726a3c4655da4fbfc0e1108a8fd17b448a68554199c47d08ffb10d4b860007ffffffffffffffffffffffffffffffffffffffffffffffffffffffffefffffc2f611324565b809250819350505081600080868152602001908152602001600020600401541461058a576040517f08c379a00000000000000000000000000000000000000000000000000000000081526004018080602001828103825260128152602001807f736b3220646f6573206e6f74206d61746368000000000000000000000000000081525060200191505060405180910390fd5b806000808681526020019081526020016000206005015414610614576040517f08c379a00000000000000000000000000000000000000000000000000000000081526004018080602001828103825260128152602001807f736b3220646f6573206e6f74206d61746368000000000000000000000000000081525060200191505060405180910390fd5b873373ffffffffffffffffffffffffffffffffffffffff1660008083815260200190815260200160002060010160009054906101000a900473ffffffffffffffffffffffffffffffffffffffff1673ffffffffffffffffffffffffffffffffffffffff16146106eb576040517f08c379a000000000000000000000000000000000000000000000000000000000815260040180806020018281038252601a8152602001807f776974686472617761626c653a206e6f7420726563656976657200000000000081525060200191505060405180910390fd5b6000151560008083815260200190815260200160002060070160009054906101000a900460ff16151514610787576040517f08c379a000000000000000000000000000000000000000000000000000000000815260040180806020018281038252601f8152602001807f776974686472617761626c653a20616c72656164792077697468647261776e0081525060200191505060405180910390fd5b4260008083815260200190815260200160002060060154116107f4576040517f08c379a0000000000000000000000000000000000000000000000000000000008152600401808060200182810382526031815260200180611baf6031913960400191505060405180910390fd5b60008060008b8152602001908152602001600020905060018160070160006101000a81548160ff0219169083151502179055508060010160009054906101000a900473ffffffffffffffffffffffffffffffffffffffff1673ffffffffffffffffffffffffffffffffffffffff166108fc82600301549081150290604051600060405180830381858888f19350505050158015610895573d6000803e3d6000fd5b506108a381600201546108f9565b897fd6fd4c8e45bf0c70693141c7ce46451b6a6a28ac8386fca2ba914044e0e2391660405160405180910390a2600197505050505050505092915050565b60016020528060005260406000206000915090505481565b60006001600083815260200190815260200160002054141561093257600180600083815260200190815260200160002081905550610956565b60016000828152602001908152602001600020600081548092919060010191905055505b50565b60008034116109d0576040517f08c379a00000000000000000000000000000000000000000000000000000000081526004018080602001828103825260158152602001807f6d73672e76616c7565206d757374206265203e2030000000000000000000000081525060200191505060405180910390fd5b81428111610a29576040517f08c379a0000000000000000000000000000000000000000000000000000000008152600401808060200182810382526023815260200180611b696023913960400191505060405180910390fd5b33878734888888604051602001808873ffffffffffffffffffffffffffffffffffffffff1673ffffffffffffffffffffffffffffffffffffffff1660601b81526014018773ffffffffffffffffffffffffffffffffffffffff1673ffffffffffffffffffffffffffffffffffffffff1660601b8152601401868152602001858152602001848152602001838152602001828152602001975050505050505050604051602081830303815290604052805190602001209150610ae9826112b6565b15610b5c576040517f08c379a00000000000000000000000000000000000000000000000000000000081526004018080602001828103825260178152602001807f436f6e747261637420616c72656164792065786973747300000000000000000081525060200191505060405180910390fd5b6040518061012001604052803373ffffffffffffffffffffffffffffffffffffffff1681526020018873ffffffffffffffffffffffffffffffffffffffff1681526020018781526020013481526020018681526020018581526020018481526020016000151581526020016000151581525060008084815260200190815260200160002060008201518160000160006101000a81548173ffffffffffffffffffffffffffffffffffffffff021916908373ffffffffffffffffffffffffffffffffffffffff16021790555060208201518160010160006101000a81548173ffffffffffffffffffffffffffffffffffffffff021916908373ffffffffffffffffffffffffffffffffffffffff16021790555060408201518160020155606082015181600301556080820151816004015560a0820151816005015560c0820151816006015560e08201518160070160006101000a81548160ff0219169083151502179055506101008201518160070160016101000a81548160ff0219169083151502179055509050508673ffffffffffffffffffffffffffffffffffffffff163373ffffffffffffffffffffffffffffffffffffffff16837f4998d0afe630024d6e3029b2daa59305083579d05e260544fcca5964b27ed05289348a8a8a604051808681526020018581526020018481526020018381526020018281526020019550505050505060405180910390a45095945050505050565b600081610d80816112b6565b610df2576040517f08c379a00000000000000000000000000000000000000000000000000000000081526004018080602001828103825260198152602001807f636f6e7472616374496420646f6573206e6f742065786973740000000000000081525060200191505060405180910390fd5b823373ffffffffffffffffffffffffffffffffffffffff1660008083815260200190815260200160002060000160009054906101000a900473ffffffffffffffffffffffffffffffffffffffff1673ffffffffffffffffffffffffffffffffffffffff1614610ec9576040517f08c379a00000000000000000000000000000000000000000000000000000000081526004018080602001828103825260168152602001807f726566756e6461626c653a206e6f742073656e6465720000000000000000000081525060200191505060405180910390fd5b6000151560008083815260200190815260200160002060070160019054906101000a900460ff16151514610f65576040517f08c379a000000000000000000000000000000000000000000000000000000000815260040180806020018281038252601c8152602001807f726566756e6461626c653a20616c726561647920726566756e6465640000000081525060200191505060405180910390fd5b6000151560008083815260200190815260200160002060070160009054906101000a900460ff16151514611001576040517f08c379a000000000000000000000000000000000000000000000000000000000815260040180806020018281038252601d8152602001807f726566756e6461626c653a20616c72656164792077697468647261776e00000081525060200191505060405180910390fd5b4260008083815260200190815260200160002060060154111561106f576040517f08c379a0000000000000000000000000000000000000000000000000000000008152600401808060200182810382526023815260200180611b8c6023913960400191505060405180910390fd5b6000806000868152602001908152602001600020905060018160070160016101000a81548160ff0219169083151502179055508060000160009054906101000a900473ffffffffffffffffffffffffffffffffffffffff1673ffffffffffffffffffffffffffffffffffffffff166108fc82600301549081150290604051600060405180830381858888f19350505050158015611110573d6000803e3d6000fd5b50847f989b3a845197c9aec15f8982bbb30b5da714050e662a7a287bb1a94c81e2e70e60405160405180910390a260019350505050919050565b7f483ada7726a3c4655da4fbfc0e1108a8fd17b448a68554199c47d08ffb10d4b881565b600081565b600080600080600080600080600080151561118d8b6112b6565b151514156111ce576000806000801b600080600080600080889850879750859550849450839350829250985098509850985098509850985098509850611285565b60008060008c815260200190815260200160002090508060000160009054906101000a900473ffffffffffffffffffffffffffffffffffffffff168160010160009054906101000a900473ffffffffffffffffffffffffffffffffffffffff16826002015483600301548460040154856005015486600601548760070160009054906101000a900460ff168860070160019054906101000a900460ff16889850879750995099509950995099509950995099509950505b9193959799909294969850565b7ffffffffffffffffffffffffffffffffffffffffffffffffffffffffefffffc2f81565b60008073ffffffffffffffffffffffffffffffffffffffff1660008084815260200190815260200160002060000160009054906101000a900473ffffffffffffffffffffffffffffffffffffffff1673ffffffffffffffffffffffffffffffffffffffff1614159050919050565b600080600080600061133b8a8a8a60018b8b61135e565b92509250925061134d83838389611403565b945094505050509550959350505050565b600080600080891415611379578787879250925092506113f7565b6000899050600080905060008090506000600190505b600084146113e957600060018516146113be576113b18383838f8f8f8e61145e565b8093508194508295505050505b600284816113c857fe5b0493506113d88c8c8c8c8c61192f565b809c50819d50829e5050505061138f565b828282965096509650505050505b96509650969350505050565b60008060006114128585611a4e565b90506000848061141e57fe5b82830990506000858061142d57fe5b828a0990506000868061143c57fe5b878061144457fe5b8486098a0990508181955095505050505094509492505050565b6000806000808a1480156114725750600089145b1561148557868686925092509250611922565b6000871480156114955750600086145b156114a857898989925092509250611922565b6114b0611b46565b84806114b857fe5b898a09816000600481106114c857fe5b60200201818152505084806114d957fe5b816000600481106114e657fe5b60200201518a09816001600481106114fa57fe5b602002018181525050848061150b57fe5b8687098160026004811061151b57fe5b602002018181525050848061152c57fe5b8160026004811061153957fe5b602002015187098160036004811061154d57fe5b6020020181815250506040518060800160405280868061156957fe5b8360026004811061157657fe5b60200201518e098152602001868061158a57fe5b8360036004811061159757fe5b60200201518d09815260200186806115ab57fe5b836000600481106115b857fe5b60200201518b09815260200186806115cc57fe5b836001600481106115d957fe5b60200201518a098152509050806002600481106115f257fe5b60200201518160006004811061160457fe5b602002015114158061163857508060036004811061161e57fe5b60200201518160016004811061163057fe5b602002015114155b6116aa576040517f08c379a000000000000000000000000000000000000000000000000000000000815260040180806020018281038252601e8152602001807f557365206a6163446f75626c652066756e6374696f6e20696e7374656164000081525060200191505060405180910390fd5b6116b2611b46565b85806116ba57fe5b826000600481106116c757fe5b60200201518703836002600481106116db57fe5b602002015108816000600481106116ee57fe5b60200201818152505085806116ff57fe5b8260016004811061170c57fe5b602002015187038360036004811061172057fe5b6020020151088160016004811061173357fe5b602002018181525050858061174457fe5b8160006004811061175157fe5b60200201518260006004811061176357fe5b6020020151098160026004811061177657fe5b602002018181525050858061178757fe5b8160006004811061179457fe5b6020020151826002600481106117a657fe5b602002015109816003600481106117b957fe5b602002018181525050600086806117cc57fe5b826003600481106117d957fe5b6020020151880388806117e857fe5b846001600481106117f557fe5b60200201518560016004811061180757fe5b602002015109089050868061181857fe5b878061182057fe5b888061182857fe5b8460026004811061183557fe5b60200201518660006004811061184757fe5b6020020151096002098803820890506000878061186057fe5b888061186857fe5b838a038a8061187357fe5b8660026004811061188057fe5b60200201518860006004811061189257fe5b60200201510908846001600481106118a657fe5b602002015109905087806118b657fe5b88806118be57fe5b846003600481106118cb57fe5b6020020151866001600481106118dd57fe5b602002015109890382089050600088806118f357fe5b89806118fb57fe5b8b8f098560006004811061190b57fe5b602002015109905082828297509750975050505050505b9750975097945050505050565b60008060008086141561194a57878787925092509250611a43565b6000848061195457fe5b898a0990506000858061196357fe5b898a0990506000868061197257fe5b898a0990506000878061198157fe5b888061198957fe5b848e0960040990506000888061199b57fe5b89806119a357fe5b8a806119ab57fe5b8586098c098a806119b857fe5b8760030908905088806119c757fe5b89806119cf57fe5b8384088a038a806119dc57fe5b83840908945088806119ea57fe5b89806119f257fe5b8a806119fa57fe5b8687096008098a038a80611a0a57fe5b8b80611a1257fe5b888d03860884090893508880611a2457fe5b8980611a2c57fe5b8c8e09600209925084848497509750975050505050505b955095509592505050565b6000808314158015611a605750818314155b8015611a6d575060008214155b611adf576040517f08c379a000000000000000000000000000000000000000000000000000000000815260040180806020018281038252600e8152602001807f496e76616c6964206e756d62657200000000000000000000000000000000000081525060200191505060405180910390fd5b6000809050600060019050600084905060005b60008714611b3957868281611b0357fe5b049050828680611b0f57fe5b8780611b1757fe5b8584098803860880945081955050508687820283038098508193505050611af2565b8394505050505092915050565b604051806080016040528060049060208202803883398082019150509050509056fe74696d656c6f636b2074696d65206d75737420626520696e2074686520667574757265726566756e6461626c653a2074696d656c6f636b206e6f742079657420706173736564776974686472617761626c653a2074696d656c6f636b2074696d65206d75737420626520696e2074686520667574757265a265627a7a72315820ec6d2d6a3d13c4f40baba83c81fa4f1f0856b54ebac1e92a246dd11663bcc76464736f6c63430005100032",
  "source": "// SPDX-License-Identifier: MIT\n\npragma solidity ^0.5.0;\n\nimport \"./EllipticCurve.sol\";\n\n/**\n * @title Hashed Timelock Contracts (HTLCs) on Ethereum ETH.\n *\n * This contract provides a way to create and keep HTLCs for ETH.\n *\n * See HashedTimelockERC20.sol for a contract that provides the same functions\n * for ERC20 tokens.\n *\n * Protocol:\n *\n *  1) newContract(receiver, sk1, sk1y, timelock) - a sender calls this to create\n *      a new HTLC and gets back a 32 byte contract id\n *  2) withdraw(contractId, sk2) - once the receiver knows sk2 \n *      they can claim the ETH with this function\n *  3) refund() - after timelock has expired and if the receiver did not\n *      withdraw funds the sender / creator of the HTLC can get their ETH\n *      back with this function.\n */\ncontract JustForTest {\n\n    event LogHTLCNew(\n        bytes32 indexed contractId,\n        address indexed sender,\n        address indexed receiver,\n        bytes32 datahash,\n        uint amount,\n        uint256 sk1x,\n        uint256 sk1y,\n        uint timelock\n    );\n    event LogHTLCWithdraw(bytes32 indexed contractId);\n    event LogHTLCRefund(bytes32 indexed contractId);\n\n    struct LockContract {\n        address payable sender;\n        address payable receiver;\n        bytes32 datahash;\n        uint amount;\n        uint256 sk1x;\n        uint256 sk1y; //the pre-set results calculated by the buyer(sender) for future checking\n        uint timelock; // UNIX timestamp seconds - locked UNTIL this time\n        bool withdrawn;\n        bool refunded;\n    }\n\n\n    uint256 public constant GX = 0x79BE667EF9DCBBAC55A06295CE870B07029BFCDB2DCE28D959F2815B16F81798;\n    uint256 public constant GY = 0x483ADA7726A3C4655DA4FBFC0E1108A8FD17B448A68554199C47D08FFB10D4B8;\n    uint256 public constant AA = 0;\n    uint256 public constant PP = 0xFFFFFFFFFFFFFFFFFFFFFFFFFFFFFFFFFFFFFFFFFFFFFFFFFFFFFFFEFFFFFC2F;\n    //uint256 public constant sk1x = 112711660439710606056748659173929673102114977341539408544630613555209775888121;\n    //uint256 public constant sk1y = 25583027980570883691656905877401976406448868254816295069919888960541586679410;\n\n    modifier fundsSent() {\n        require(msg.value > 0, \"msg.value must be > 0\");\n        _;\n    }\n    modifier futureTimelock(uint _time) {\n        // only requirement is the timelock time is after the last blocktime (now).\n        // probably want something a bit further in the future then this.\n        // but this is still a useful sanity check:\n        require(_time > now, \"timelock time must be in the future\");\n        _;\n    }\n    modifier contractExists(bytes32 _contractId) {\n        require(haveContract(_contractId), \"contractId does not exist\");\n        _;\n    }\n    modifier sklockMatches(bytes32 _contractId, uint256 sk2) {\n        uint256 sk2x;\n        uint256 sk2y;\n        (sk2x, sk2y) = EllipticCurve.ecMul(sk2,GX,GY,AA,PP);                  //sk2*G(X,Y) \n        require(contracts[_contractId].sk1x == sk2x, \"sk2 does not match\");\n        require(contracts[_contractId].sk1y == sk2y, \"sk2 does not match\");\n        _;\n    }\n    modifier withdrawable(bytes32 _contractId) {\n        require(contracts[_contractId].receiver == msg.sender, \"withdrawable: not receiver\");\n        require(contracts[_contractId].withdrawn == false, \"withdrawable: already withdrawn\");\n        require(contracts[_contractId].timelock > now, \"withdrawable: timelock time must be in the future\");\n        _;\n    }\n    modifier refundable(bytes32 _contractId) {\n        require(contracts[_contractId].sender == msg.sender, \"refundable: not sender\");\n        require(contracts[_contractId].refunded == false, \"refundable: already refunded\");\n        require(contracts[_contractId].withdrawn == false, \"refundable: already withdrawn\");\n        require(contracts[_contractId].timelock <= now, \"refundable: timelock not yet passed\");\n        _;\n    }\n\n    mapping (bytes32 => LockContract) contracts;\n    mapping(bytes32 => uint256) public counters;\n\n    /**\n     * @dev Sender sets up a new hash time lock contract depositing the ETH and\n     * providing the reciever lock terms.\n     *\n     * @param _receiver Receiver of the ETH.\n     * @param _sk1x, _sk1y The calculated results based on sk1 which was given during the negotiation phase.\n     * @param _timelock UNIX epoch seconds time that the lock expires at.\n     *                  Refunds can be made after this time.\n     * @return contractId Id of the new HTLC. This is needed for subsequent\n     *                    calls.\n     */\n    function newContract(address payable _receiver, bytes32 _datahash, uint256 _sk1x, uint256 _sk1y, uint _timelock)\n        external\n        payable\n        fundsSent\n        futureTimelock(_timelock)\n        returns (bytes32 contractId)\n    {\n        contractId = keccak256(\n            abi.encodePacked(\n                msg.sender,\n                _receiver,\n                _datahash,\n                msg.value,\n                _sk1x,\n                _sk1y,\n                _timelock\n            )\n        );\n\n        // Reject if a contract already exists with the same parameters. The\n        // sender must change one of these parameters to create a new distinct\n        // contract.\n        if (haveContract(contractId))\n            revert(\"Contract already exists\");\n\n        contracts[contractId] = LockContract(\n            msg.sender,\n            _receiver,\n            _datahash,\n            msg.value,\n            _sk1x,\n            _sk1y,\n            _timelock,\n            false,\n            false\n        );\n\n        emit LogHTLCNew(\n            contractId,\n            msg.sender,\n            _receiver,\n            _datahash,\n            msg.value,\n            _sk1x,\n            _sk1y,\n            _timelock\n        );\n    }\n\n    function increment(bytes32 txHash) public {\n        if (counters[txHash] == 0) {\n            counters[txHash] = 1;\n        } else {\n            counters[txHash]++;  \n        }\n    }\n\n    /**\n     * @dev Called by the receiver once they know sk2.\n     * This will transfer the locked funds to their address.\n     *\n     * @param _contractId Id of the HTLC.\n     * @param _sk2 G(X,Y)**_sk2 should equal to (sk1x,sk1y).\n     * @return bool true on success\n     */\n    function withdraw(bytes32 _contractId, uint256 _sk2)\n        external\n        contractExists(_contractId)\n        sklockMatches(_contractId, _sk2)\n        withdrawable(_contractId)\n        returns (bool)\n    {\n        LockContract storage c = contracts[_contractId];\n        //c.sk2 = _preimage;\n        c.withdrawn = true;\n        c.receiver.transfer(c.amount);\n        increment(c.datahash);\n        emit LogHTLCWithdraw(_contractId);\n        return true;\n    }\n\n    /**\n     * @dev Called by the sender if there was no withdraw AND the time lock has\n     * expired. This will refund the contract amount.\n     *\n     * @param _contractId Id of HTLC to refund from.\n     * @return bool true on success\n     */\n    function refund(bytes32 _contractId)\n        external\n        contractExists(_contractId)\n        refundable(_contractId)\n        returns (bool)\n    {\n        LockContract storage c = contracts[_contractId];\n        c.refunded = true;\n        c.sender.transfer(c.amount);\n        emit LogHTLCRefund(_contractId);\n        return true;\n    }\n\n    /**\n     * @dev Get contract details.\n     * @param _contractId HTLC contract id\n     * return All parameters in struct LockContract for _contractId HTLC\n     */\n    function getContract(bytes32 _contractId) \n    public \n    view \n    returns (\n        address sender,\n        address receiver,\n        bytes32 datahash,\n        uint amount,\n        uint256 sk1x,\n        uint256 sk1y,\n        uint timelock,\n        bool withdrawn,\n        bool refunded)\n    {\n        if (haveContract(_contractId) == false)\n            return (address(0), address(0), bytes32(0), 0, 0, 0, 0, false, false);\n        LockContract storage c = contracts[_contractId];\n        return (\n            c.sender,\n            c.receiver,\n            c.datahash,\n            c.amount,\n            c.sk1x,\n            c.sk1y,\n            c.timelock,\n            c.withdrawn,\n            c.refunded\n        );\n    }\n\n    /**\n     * @dev Is there a contract with id _contractId.\n     * @param _contractId Id into contracts mapping.\n     */\n    function haveContract(bytes32 _contractId)\n        internal\n        view\n        returns (bool exists)\n    {\n        exists = (contracts[_contractId].sender != address(0));\n    }\n\n    \n\n}",
  "sourcePath": "/home/shady/Github/FairTradeExt/contracts/BslWithCounter.sol",
  "compiler": {
    "name": "solc",
    "version": "0.5.16+commit.9c3226ce.Emscripten.clang"
  },
  "schemaVersion": "3.4.16",
  "updatedAt": "2025-12-29T23:43:01.334Z",
  "devdoc": {
    "methods": {
      "getContract(bytes32)": {
        "details": "Get contract details.",
        "params": {
          "_contractId": "HTLC contract id return All parameters in struct LockContract for _contractId HTLC"
        }
      },
      "newContract(address,bytes32,uint256,uint256,uint256)": {
        "details": "Sender sets up a new hash time lock contract depositing the ETH and providing the reciever lock terms.",
        "params": {
          "_receiver": "Receiver of the ETH.",
          "_sk1x": ", _sk1y The calculated results based on sk1 which was given during the negotiation phase.",
          "_timelock": "UNIX epoch seconds time that the lock expires at.                 Refunds can be made after this time."
        },
        "return": "contractId Id of the new HTLC. This is needed for subsequent                   calls."
      },
      "refund(bytes32)": {
        "details": "Called by the sender if there was no withdraw AND the time lock has expired. This will refund the contract amount.",
        "params": {
          "_contractId": "Id of HTLC to refund from."
        },
        "return": "bool true on success"
      },
      "withdraw(bytes32,uint256)": {
        "details": "Called by the receiver once they know sk2. This will transfer the locked funds to their address.",
        "params": {
          "_contractId": "Id of the HTLC.",
          "_sk2": "G(X,Y)**_sk2 should equal to (sk1x,sk1y)."
        },
        "return": "bool true on success"
      }
    },
    "title": "Hashed Timelock Contracts (HTLCs) on Ethereum ETH. * This contract provides a way to create and keep HTLCs for ETH. * See HashedTimelockERC20.sol for a contract that provides the same functions for ERC20 tokens. * Protocol: *  1) newContract(receiver, sk1, sk1y, timelock) - a sender calls this to create     a new HTLC and gets back a 32 byte contract id 2) withdraw(contractId, sk2) - once the receiver knows sk2      they can claim the ETH with this function 3) refund() - after timelock has expired and if the receiver did not     withdraw funds the sender / creator of the HTLC can get their ETH     back with this function."
  },
  "userdoc": {
    "methods": {}
  }
}