{
  "contractName": "JustAnotherTest",
  "abi": [
    {
      "anonymous": false,
      "inputs": [
        {
          "indexed": true,
          "internalType": "bytes32",
          "name": "contractId",
          "type": "bytes32"
        },
        {
          "indexed": true,
          "internalType": "address",
          "name": "sender",
          "type": "address"
        },
        {
          "indexed": true,
          "internalType": "address",
          "name": "receiver",
          "type": "address"
        },
        {
          "indexed": false,
          "internalType": "bytes32",
          "name": "datahash",
          "type": "bytes32"
        },
        {
          "indexed": false,
          "internalType": "uint256",
          "name": "amount",
          "type": "uint256"
        },
        {
          "indexed": false,
          "internalType": "uint256",
          "name": "sk1x",
          "type": "uint256"
        },
        {
          "indexed": false,
          "internalType": "uint256",
          "name": "sk1y",
          "type": "uint256"
        },
        {
          "indexed": false,
          "internalType": "uint256",
          "name": "timelock",
          "type": "uint256"
        }
      ],
      "name": "LogHTLCNew",
      "type": "event"
    },
    {
      "anonymous": false,
      "inputs": [
        {
          "indexed": true,
          "internalType": "bytes32",
          "name": "contractId",
          "type": "bytes32"
        }
      ],
      "name": "LogHTLCRefund",
      "type": "event"
    },
    {
      "anonymous": false,
      "inputs": [
        {
          "indexed": true,
          "internalType": "bytes32",
          "name": "contractId",
          "type": "bytes32"
        }
      ],
      "name": "LogHTLCWithdraw",
      "type": "event"
    },
    {
      "anonymous": false,
      "inputs": [
        {
          "indexed": true,
          "internalType": "bytes32",
          "name": "currentRoot",
          "type": "bytes32"
        },
        {
          "indexed": true,
          "internalType": "uint256",
          "name": "calTotal",
          "type": "uint256"
        }
      ],
      "name": "Results",
      "type": "event"
    },
    {
      "constant": true,
      "inputs": [],
      "name": "AA",
      "outputs": [
        {
          "internalType": "uint256",
          "name": "",
          "type": "uint256"
        }
      ],
      "payable": false,
      "stateMutability": "view",
      "type": "function"
    },
    {
      "constant": true,
      "inputs": [],
      "name": "GX",
      "outputs": [
        {
          "internalType": "uint256",
          "name": "",
          "type": "uint256"
        }
      ],
      "payable": false,
      "stateMutability": "view",
      "type": "function"
    },
    {
      "constant": true,
      "inputs": [],
      "name": "GY",
      "outputs": [
        {
          "internalType": "uint256",
          "name": "",
          "type": "uint256"
        }
      ],
      "payable": false,
      "stateMutability": "view",
      "type": "function"
    },
    {
      "constant": true,
      "inputs": [],
      "name": "PP",
      "outputs": [
        {
          "internalType": "uint256",
          "name": "",
          "type": "uint256"
        }
      ],
      "payable": false,
      "stateMutability": "view",
      "type": "function"
    },
    {
      "constant": true,
      "inputs": [],
      "name": "storedHash",
      "outputs": [
        {
          "internalType": "bytes32",
          "name": "",
          "type": "bytes32"
        }
      ],
      "payable": false,
      "stateMutability": "view",
      "type": "function"
    },
    {
      "constant": false,
      "inputs": [
        {
          "internalType": "address payable",
          "name": "_receiver",
          "type": "address"
        },
        {
          "internalType": "bytes32",
          "name": "_datahash",
          "type": "bytes32"
        },
        {
          "internalType": "uint256",
          "name": "_sk1x",
          "type": "uint256"
        },
        {
          "internalType": "uint256",
          "name": "_sk1y",
          "type": "uint256"
        },
        {
          "internalType": "uint256",
          "name": "_timelock",
          "type": "uint256"
        }
      ],
      "name": "newContract",
      "outputs": [
        {
          "internalType": "bytes32",
          "name": "contractId",
          "type": "bytes32"
        }
      ],
      "payable": true,
      "stateMutability": "payable",
      "type": "function"
    },
    {
      "constant": false,
      "inputs": [
        {
          "internalType": "bytes32",
          "name": "newHash",
          "type": "bytes32"
        }
      ],
      "name": "hashChain",
      "outputs": [],
      "payable": false,
      "stateMutability": "nonpayable",
      "type": "function"
    },
    {
      "constant": false,
      "inputs": [
        {
          "internalType": "bytes32",
          "name": "_contractId",
          "type": "bytes32"
        },
        {
          "internalType": "uint256",
          "name": "_sk2",
          "type": "uint256"
        }
      ],
      "name": "withdraw",
      "outputs": [
        {
          "internalType": "bool",
          "name": "",
          "type": "bool"
        }
      ],
      "payable": false,
      "stateMutability": "nonpayable",
      "type": "function"
    },
    {
      "constant": false,
      "inputs": [
        {
          "internalType": "bytes32",
          "name": "_contractId",
          "type": "bytes32"
        }
      ],
      "name": "refund",
      "outputs": [
        {
          "internalType": "bool",
          "name": "",
          "type": "bool"
        }
      ],
      "payable": false,
      "stateMutability": "nonpayable",
      "type": "function"
    },
    {
      "constant": true,
      "inputs": [
        {
          "internalType": "bytes32",
          "name": "_contractId",
          "type": "bytes32"
        }
      ],
      "name": "getContract",
      "outputs": [
        {
          "internalType": "address",
          "name": "sender",
          "type": "address"
        },
        {
          "internalType": "address",
          "name": "receiver",
          "type": "address"
        },
        {
          "internalType": "bytes32",
          "name": "datahash",
          "type": "bytes32"
        },
        {
          "internalType": "uint256",
          "name": "amount",
          "type": "uint256"
        },
        {
          "internalType": "uint256",
          "name": "sk1x",
          "type": "uint256"
        },
        {
          "internalType": "uint256",
          "name": "sk1y",
          "type": "uint256"
        },
        {
          "internalType": "uint256",
          "name": "timelock",
          "type": "uint256"
        },
        {
          "internalType": "bool",
          "name": "withdrawn",
          "type": "bool"
        },
        {
          "internalType": "bool",
          "name": "refunded",
          "type": "bool"
        }
      ],
      "payable": false,
      "stateMutability": "view",
      "type": "function"
    },
    {
      "constant": false,
      "inputs": [
        {
          "internalType": "bytes32[]",
          "name": "data_list",
          "type": "bytes32[]"
        },
        {
          "internalType": "uint256[]",
          "name": "sale_num",
          "type": "uint256[]"
        },
        {
          "internalType": "uint256[]",
          "name": "sale_list",
          "type": "uint256[]"
        }
      ],
      "name": "validateCommitment",
      "outputs": [],
      "payable": false,
      "stateMutability": "nonpayable",
      "type": "function"
    }
  ],
  "bytecode": "0x608060405234801561001057600080fd5b506122aa806100206000396000f3fe60806040526004361061009c5760003560e01c80637a308a4c116100645780637a308a4c146103e9578063997da8d414610414578063aca09e181461043f578063b0da51951461047a578063e16c7d98146104a5578063eeeac01e1461058c5761009c565b806303a507be146100a1578063040cf020146100cc57806358541662146101295780635ec2f4e1146101a95780637249fbb614610396575b600080fd5b3480156100ad57600080fd5b506100b66105b7565b6040518082815260200191505060405180910390f35b3480156100d857600080fd5b5061010f600480360360408110156100ef57600080fd5b8101908080359060200190929190803590602001909291905050506105db565b604051808215151515815260200191505060405180910390f35b610193600480360360a081101561013f57600080fd5b81019080803573ffffffffffffffffffffffffffffffffffffffff16906020019092919080359060200190929190803590602001909291908035906020019092919080359060200190929190505050610abb565b6040518082815260200191505060405180910390f35b3480156101b557600080fd5b50610394600480360360608110156101cc57600080fd5b81019080803590602001906401000000008111156101e957600080fd5b8201836020820111156101fb57600080fd5b8035906020019184602083028401116401000000008311171561021d57600080fd5b919080806020026020016040519081016040528093929190818152602001838360200280828437600081840152601f19601f8201169050808301925050505050505091929192908035906020019064010000000081111561027d57600080fd5b82018360208201111561028f57600080fd5b803590602001918460208302840111640100000000831117156102b157600080fd5b919080806020026020016040519081016040528093929190818152602001838360200280828437600081840152601f19601f8201169050808301925050505050505091929192908035906020019064010000000081111561031157600080fd5b82018360208201111561032357600080fd5b8035906020019184602083028401116401000000008311171561034557600080fd5b919080806020026020016040519081016040528093929190818152602001838360200280828437600081840152601f19601f820116905080830192505050505050509192919290505050610ed7565b005b3480156103a257600080fd5b506103cf600480360360208110156103b957600080fd5b8101908080359060200190929190505050611386565b604051808215151515815260200191505060405180910390f35b3480156103f557600080fd5b506103fe611761565b6040518082815260200191505060405180910390f35b34801561042057600080fd5b50610429611785565b6040518082815260200191505060405180910390f35b34801561044b57600080fd5b506104786004803603602081101561046257600080fd5b810190808035906020019092919050505061178a565b005b34801561048657600080fd5b5061048f6117de565b6040518082815260200191505060405180910390f35b3480156104b157600080fd5b506104de600480360360208110156104c857600080fd5b81019080803590602001909291905050506117e4565b604051808a73ffffffffffffffffffffffffffffffffffffffff1673ffffffffffffffffffffffffffffffffffffffff1681526020018973ffffffffffffffffffffffffffffffffffffffff1673ffffffffffffffffffffffffffffffffffffffff1681526020018881526020018781526020018681526020018581526020018481526020018315151515815260200182151515158152602001995050505050505050505060405180910390f35b34801561059857600080fd5b506105a1611904565b6040518082815260200191505060405180910390f35b7f79be667ef9dcbbac55a06295ce870b07029bfcdb2dce28d959f2815b16f8179881565b6000826105e781611928565b610659576040517f08c379a00000000000000000000000000000000000000000000000000000000081526004018080602001828103825260198152602001807f636f6e7472616374496420646f6573206e6f742065786973740000000000000081525060200191505060405180910390fd5b83836000806106cc837f79be667ef9dcbbac55a06295ce870b07029bfcdb2dce28d959f2815b16f817987f483ada7726a3c4655da4fbfc0e1108a8fd17b448a68554199c47d08ffb10d4b860007ffffffffffffffffffffffffffffffffffffffffffffffffffffffffefffffc2f611997565b80925081935050508160016000868152602001908152602001600020600401541461075f576040517f08c379a00000000000000000000000000000000000000000000000000000000081526004018080602001828103825260128152602001807f736b3220646f6573206e6f74206d61746368000000000000000000000000000081525060200191505060405180910390fd5b806001600086815260200190815260200160002060050154146107ea576040517f08c379a00000000000000000000000000000000000000000000000000000000081526004018080602001828103825260128152602001807f736b3220646f6573206e6f74206d61746368000000000000000000000000000081525060200191505060405180910390fd5b873373ffffffffffffffffffffffffffffffffffffffff166001600083815260200190815260200160002060010160009054906101000a900473ffffffffffffffffffffffffffffffffffffffff1673ffffffffffffffffffffffffffffffffffffffff16146108c2576040517f08c379a000000000000000000000000000000000000000000000000000000000815260040180806020018281038252601a8152602001807f776974686472617761626c653a206e6f7420726563656976657200000000000081525060200191505060405180910390fd5b600015156001600083815260200190815260200160002060070160009054906101000a900460ff1615151461095f576040517f08c379a000000000000000000000000000000000000000000000000000000000815260040180806020018281038252601f8152602001807f776974686472617761626c653a20616c72656164792077697468647261776e0081525060200191505060405180910390fd5b426001600083815260200190815260200160002060060154116109cd576040517f08c379a00000000000000000000000000000000000000000000000000000000081526004018080602001828103825260318152602001806122456031913960400191505060405180910390fd5b6000600160008b8152602001908152602001600020905060018160070160006101000a81548160ff0219169083151502179055508060010160009054906101000a900473ffffffffffffffffffffffffffffffffffffffff1673ffffffffffffffffffffffffffffffffffffffff166108fc82600301549081150290604051600060405180830381858888f19350505050158015610a6f573d6000803e3d6000fd5b50610a7d816002015461178a565b897fd6fd4c8e45bf0c70693141c7ce46451b6a6a28ac8386fca2ba914044e0e2391660405160405180910390a2600197505050505050505092915050565b6000803411610b32576040517f08c379a00000000000000000000000000000000000000000000000000000000081526004018080602001828103825260158152602001807f6d73672e76616c7565206d757374206265203e2030000000000000000000000081525060200191505060405180910390fd5b81428111610b8b576040517f08c379a00000000000000000000000000000000000000000000000000000000081526004018080602001828103825260238152602001806121dc6023913960400191505060405180910390fd5b33878734888888604051602001808873ffffffffffffffffffffffffffffffffffffffff1673ffffffffffffffffffffffffffffffffffffffff1660601b81526014018773ffffffffffffffffffffffffffffffffffffffff1673ffffffffffffffffffffffffffffffffffffffff1660601b8152601401868152602001858152602001848152602001838152602001828152602001975050505050505050604051602081830303815290604052805190602001209150610c4b82611928565b15610cbe576040517f08c379a00000000000000000000000000000000000000000000000000000000081526004018080602001828103825260178152602001807f436f6e747261637420616c72656164792065786973747300000000000000000081525060200191505060405180910390fd5b6040518061012001604052803373ffffffffffffffffffffffffffffffffffffffff1681526020018873ffffffffffffffffffffffffffffffffffffffff168152602001878152602001348152602001868152602001858152602001848152602001600015158152602001600015158152506001600084815260200190815260200160002060008201518160000160006101000a81548173ffffffffffffffffffffffffffffffffffffffff021916908373ffffffffffffffffffffffffffffffffffffffff16021790555060208201518160010160006101000a81548173ffffffffffffffffffffffffffffffffffffffff021916908373ffffffffffffffffffffffffffffffffffffffff16021790555060408201518160020155606082015181600301556080820151816004015560a0820151816005015560c0820151816006015560e08201518160070160006101000a81548160ff0219169083151502179055506101008201518160070160016101000a81548160ff0219169083151502179055509050508673ffffffffffffffffffffffffffffffffffffffff163373ffffffffffffffffffffffffffffffffffffffff16837f4998d0afe630024d6e3029b2daa59305083579d05e260544fcca5964b27ed05289348a8a8a604051808681526020018581526020018481526020018381526020018281526020019550505050505060405180910390a45095945050505050565b6000835111610f4e576040517f08c379a000000000000000000000000000000000000000000000000000000000815260040180806020018281038252601b8152602001807f44617461206c697374206d757374206e6f7420626520656d707479000000000081525060200191505060405180910390fd5b6000825111610fc5576040517f08c379a000000000000000000000000000000000000000000000000000000000815260040180806020018281038252601d8152602001807f53616c65206e756d626572206d757374206e6f7420626520656d70747900000081525060200191505060405180910390fd5b600081511161103c576040517f08c379a000000000000000000000000000000000000000000000000000000000815260040180806020018281038252601b8152602001807f53616c65206c697374206d757374206e6f7420626520656d707479000000000081525060200191505060405180910390fd5b600081519050600080905060008090505b845181101561107b5784818151811061106257fe5b602002602001015182019150808060010191505061104d565b508181146110d4576040517f08c379a00000000000000000000000000000000000000000000000000000000081526004018080602001828103825260238152602001806122226023913960400191505060405180910390fd5b60008060001b905060008090505b838110156111815781878683815181106110f857fe5b60200260200101518151811061110a57fe5b6020026020010151604051602001808381526020018281526020019250505060405160208183030381529060405280519060200120915060018686838151811061115057fe5b60200260200101518151811061116257fe5b60200260200101818151039150818152505080806001019150506110e2565b5060008090505b855181101561122757600086828151811061119f57fe5b60200260200101511461121a576040517f08c379a00000000000000000000000000000000000000000000000000000000081526004018080602001828103825260168152602001807f53616c65206e756d626572206d757374206d617463680000000000000000000081525060200191505060405180910390fd5b8080600101915050611188565b506000865190505b600181111561133b57600080905060008090505b600283038110156112cf5788818151811061125a57fe5b602002602001015189600183018151811061127157fe5b60200260200101516040516020018083815260200182815260200192505050604051602081830303815290604052805190602001208983815181106112b257fe5b602002602001018181525050600182019150600281019050611243565b506001600283816112dc57fe5b061415611327578760018303815181106112f257fe5b602002602001015188828151811061130657fe5b60200260200101818152505060016002838161131e57fe5b04019150611335565b6002828161133157fe5b0491505b5061122f565b828760008151811061134957fe5b60200260200101517f054c12cf475c47c6d7adbdf8ee56c413c879ee319c0aed29512fb9be8e992e7660405160405180910390a350505050505050565b60008161139281611928565b611404576040517f08c379a00000000000000000000000000000000000000000000000000000000081526004018080602001828103825260198152602001807f636f6e7472616374496420646f6573206e6f742065786973740000000000000081525060200191505060405180910390fd5b823373ffffffffffffffffffffffffffffffffffffffff166001600083815260200190815260200160002060000160009054906101000a900473ffffffffffffffffffffffffffffffffffffffff1673ffffffffffffffffffffffffffffffffffffffff16146114dc576040517f08c379a00000000000000000000000000000000000000000000000000000000081526004018080602001828103825260168152602001807f726566756e6461626c653a206e6f742073656e6465720000000000000000000081525060200191505060405180910390fd5b600015156001600083815260200190815260200160002060070160019054906101000a900460ff16151514611579576040517f08c379a000000000000000000000000000000000000000000000000000000000815260040180806020018281038252601c8152602001807f726566756e6461626c653a20616c726561647920726566756e6465640000000081525060200191505060405180910390fd5b600015156001600083815260200190815260200160002060070160009054906101000a900460ff16151514611616576040517f08c379a000000000000000000000000000000000000000000000000000000000815260040180806020018281038252601d8152602001807f726566756e6461626c653a20616c72656164792077697468647261776e00000081525060200191505060405180910390fd5b4260016000838152602001908152602001600020600601541115611685576040517f08c379a00000000000000000000000000000000000000000000000000000000081526004018080602001828103825260238152602001806121ff6023913960400191505060405180910390fd5b600060016000868152602001908152602001600020905060018160070160016101000a81548160ff0219169083151502179055508060000160009054906101000a900473ffffffffffffffffffffffffffffffffffffffff1673ffffffffffffffffffffffffffffffffffffffff166108fc82600301549081150290604051600060405180830381858888f19350505050158015611727573d6000803e3d6000fd5b50847f989b3a845197c9aec15f8982bbb30b5da714050e662a7a287bb1a94c81e2e70e60405160405180910390a260019350505050919050565b7f483ada7726a3c4655da4fbfc0e1108a8fd17b448a68554199c47d08ffb10d4b881565b600081565b6000801b60005414156117a357806000819055506117db565b600054816040516020018083815260200182815260200192505050604051602081830303815290604052805190602001206000819055505b50565b60005481565b60008060008060008060008060008015156117fe8b611928565b1515141561183f576000806000801b6000806000806000808898508797508595508494508393508292509850985098509850985098509850985098506118f7565b6000600160008c815260200190815260200160002090508060000160009054906101000a900473ffffffffffffffffffffffffffffffffffffffff168160010160009054906101000a900473ffffffffffffffffffffffffffffffffffffffff16826002015483600301548460040154856005015486600601548760070160009054906101000a900460ff168860070160019054906101000a900460ff16889850879750995099509950995099509950995099509950505b9193959799909294969850565b7ffffffffffffffffffffffffffffffffffffffffffffffffffffffffefffffc2f81565b60008073ffffffffffffffffffffffffffffffffffffffff166001600084815260200190815260200160002060000160009054906101000a900473ffffffffffffffffffffffffffffffffffffffff1673ffffffffffffffffffffffffffffffffffffffff1614159050919050565b60008060008060006119ae8a8a8a60018b8b6119d1565b9250925092506119c083838389611a76565b945094505050509550959350505050565b6000806000808914156119ec57878787925092509250611a6a565b6000899050600080905060008090506000600190505b60008414611a5c5760006001851614611a3157611a248383838f8f8f8e611ad1565b8093508194508295505050505b60028481611a3b57fe5b049350611a4b8c8c8c8c8c611fa2565b809c50819d50829e50505050611a02565b828282965096509650505050505b96509650969350505050565b6000806000611a8585856120c1565b905060008480611a9157fe5b828309905060008580611aa057fe5b828a09905060008680611aaf57fe5b8780611ab757fe5b8486098a0990508181955095505050505094509492505050565b6000806000808a148015611ae55750600089145b15611af857868686925092509250611f95565b600087148015611b085750600086145b15611b1b57898989925092509250611f95565b611b236121b9565b8480611b2b57fe5b898a0981600060048110611b3b57fe5b6020020181815250508480611b4c57fe5b81600060048110611b5957fe5b60200201518a0981600160048110611b6d57fe5b6020020181815250508480611b7e57fe5b86870981600260048110611b8e57fe5b6020020181815250508480611b9f57fe5b81600260048110611bac57fe5b6020020151870981600360048110611bc057fe5b60200201818152505060405180608001604052808680611bdc57fe5b83600260048110611be957fe5b60200201518e0981526020018680611bfd57fe5b83600360048110611c0a57fe5b60200201518d0981526020018680611c1e57fe5b83600060048110611c2b57fe5b60200201518b0981526020018680611c3f57fe5b83600160048110611c4c57fe5b60200201518a09815250905080600260048110611c6557fe5b602002015181600060048110611c7757fe5b6020020151141580611cab575080600360048110611c9157fe5b602002015181600160048110611ca357fe5b602002015114155b611d1d576040517f08c379a000000000000000000000000000000000000000000000000000000000815260040180806020018281038252601e8152602001807f557365206a6163446f75626c652066756e6374696f6e20696e7374656164000081525060200191505060405180910390fd5b611d256121b9565b8580611d2d57fe5b82600060048110611d3a57fe5b6020020151870383600260048110611d4e57fe5b60200201510881600060048110611d6157fe5b6020020181815250508580611d7257fe5b82600160048110611d7f57fe5b6020020151870383600360048110611d9357fe5b60200201510881600160048110611da657fe5b6020020181815250508580611db757fe5b81600060048110611dc457fe5b602002015182600060048110611dd657fe5b60200201510981600260048110611de957fe5b6020020181815250508580611dfa57fe5b81600060048110611e0757fe5b602002015182600260048110611e1957fe5b60200201510981600360048110611e2c57fe5b60200201818152505060008680611e3f57fe5b82600360048110611e4c57fe5b602002015188038880611e5b57fe5b84600160048110611e6857fe5b602002015185600160048110611e7a57fe5b6020020151090890508680611e8b57fe5b8780611e9357fe5b8880611e9b57fe5b84600260048110611ea857fe5b602002015186600060048110611eba57fe5b60200201510960020988038208905060008780611ed357fe5b8880611edb57fe5b838a038a80611ee657fe5b86600260048110611ef357fe5b602002015188600060048110611f0557fe5b6020020151090884600160048110611f1957fe5b60200201510990508780611f2957fe5b8880611f3157fe5b84600360048110611f3e57fe5b602002015186600160048110611f5057fe5b60200201510989038208905060008880611f6657fe5b8980611f6e57fe5b8b8f0985600060048110611f7e57fe5b602002015109905082828297509750975050505050505b9750975097945050505050565b600080600080861415611fbd578787879250925092506120b6565b60008480611fc757fe5b898a09905060008580611fd657fe5b898a09905060008680611fe557fe5b898a09905060008780611ff457fe5b8880611ffc57fe5b848e0960040990506000888061200e57fe5b898061201657fe5b8a8061201e57fe5b8586098c098a8061202b57fe5b87600309089050888061203a57fe5b898061204257fe5b8384088a038a8061204f57fe5b838409089450888061205d57fe5b898061206557fe5b8a8061206d57fe5b8687096008098a038a8061207d57fe5b8b8061208557fe5b888d0386088409089350888061209757fe5b898061209f57fe5b8c8e09600209925084848497509750975050505050505b955095509592505050565b60008083141580156120d35750818314155b80156120e0575060008214155b612152576040517f08c379a000000000000000000000000000000000000000000000000000000000815260040180806020018281038252600e8152602001807f496e76616c6964206e756d62657200000000000000000000000000000000000081525060200191505060405180910390fd5b6000809050600060019050600084905060005b600087146121ac5786828161217657fe5b04905082868061218257fe5b878061218a57fe5b8584098803860880945081955050508687820283038098508193505050612165565b8394505050505092915050565b604051806080016040528060049060208202803883398082019150509050509056fe74696d656c6f636b2074696d65206d75737420626520696e2074686520667574757265726566756e6461626c653a2074696d656c6f636b206e6f742079657420706173736564546f74616c207472616e73616374696f6e206e756d626572206d757374206d61746368776974686472617761626c653a2074696d656c6f636b2074696d65206d75737420626520696e2074686520667574757265a265627a7a7231582076d57627911a881254d1d5b93163432ab0eb3b561869ddf060f763edd53c3a0064736f6c63430005100032",
  "source": "// SPDX-License-Identifier: MIT\n\npragma solidity ^0.5.0;\n\nimport \"./EllipticCurve.sol\";\n\n/**\n * @title Hashed Timelock Contracts (HTLCs) on Ethereum ETH.\n *\n * This contract provides a way to create and keep HTLCs for ETH.\n *\n * See HashedTimelockERC20.sol for a contract that provides the same functions\n * for ERC20 tokens.\n *\n * Protocol:\n *\n *  1) newContract(receiver, sk1, sk1y, timelock) - a sender calls this to create\n *      a new HTLC and gets back a 32 byte contract id\n *  2) withdraw(contractId, sk2) - once the receiver knows sk2 \n *      they can claim the ETH with this function\n *  3) refund() - after timelock has expired and if the receiver did not\n *      withdraw funds the sender / creator of the HTLC can get their ETH\n *      back with this function.\n */\n\n //This is testof ours.\ncontract JustAnotherTest {\n\n    event LogHTLCNew(\n        bytes32 indexed contractId,\n        address indexed sender,\n        address indexed receiver,\n        bytes32 datahash,\n        uint amount,\n        uint256 sk1x,\n        uint256 sk1y,\n        uint timelock\n    );\n    event LogHTLCWithdraw(bytes32 indexed contractId);\n    event LogHTLCRefund(bytes32 indexed contractId);\n    event Results(bytes32 indexed currentRoot, uint256 indexed calTotal);\n\n    struct LockContract {\n        address payable sender;\n        address payable receiver;\n        bytes32 datahash;\n        uint amount;\n        uint256 sk1x;\n        uint256 sk1y; //the pre-set results calculated by the buyer(sender) for future checking\n        uint timelock; // UNIX timestamp seconds - locked UNTIL this time\n        bool withdrawn;\n        bool refunded;\n    }\n\n\n    uint256 public constant GX = 0x79BE667EF9DCBBAC55A06295CE870B07029BFCDB2DCE28D959F2815B16F81798;\n    uint256 public constant GY = 0x483ADA7726A3C4655DA4FBFC0E1108A8FD17B448A68554199C47D08FFB10D4B8;\n    uint256 public constant AA = 0;\n    uint256 public constant PP = 0xFFFFFFFFFFFFFFFFFFFFFFFFFFFFFFFFFFFFFFFFFFFFFFFFFFFFFFFEFFFFFC2F;\n    bytes32 public storedHash; //keep the current hash chain value\n    //uint256 public constant sk1x = 112711660439710606056748659173929673102114977341539408544630613555209775888121;\n    //uint256 public constant sk1y = 25583027980570883691656905877401976406448868254816295069919888960541586679410;\n\n    modifier fundsSent() {\n        require(msg.value > 0, \"msg.value must be > 0\");\n        _;\n    }\n    modifier futureTimelock(uint _time) {\n        // only requirement is the timelock time is after the last blocktime (now).\n        // probably want something a bit further in the future then this.\n        // but this is still a useful sanity check:\n        require(_time > now, \"timelock time must be in the future\");\n        _;\n    }\n    modifier contractExists(bytes32 _contractId) {\n        require(haveContract(_contractId), \"contractId does not exist\");\n        _;\n    }\n    modifier sklockMatches(bytes32 _contractId, uint256 sk2) {\n        uint256 sk2x;\n        uint256 sk2y;\n        (sk2x, sk2y) = EllipticCurve.ecMul(sk2,GX,GY,AA,PP);                  //sk2*G(X,Y) \n        require(contracts[_contractId].sk1x == sk2x, \"sk2 does not match\");\n        require(contracts[_contractId].sk1y == sk2y, \"sk2 does not match\");\n        _;\n    }\n    modifier withdrawable(bytes32 _contractId) {\n        require(contracts[_contractId].receiver == msg.sender, \"withdrawable: not receiver\");\n        require(contracts[_contractId].withdrawn == false, \"withdrawable: already withdrawn\");\n        require(contracts[_contractId].timelock > now, \"withdrawable: timelock time must be in the future\");\n        _;\n    }\n    modifier refundable(bytes32 _contractId) {\n        require(contracts[_contractId].sender == msg.sender, \"refundable: not sender\");\n        require(contracts[_contractId].refunded == false, \"refundable: already refunded\");\n        require(contracts[_contractId].withdrawn == false, \"refundable: already withdrawn\");\n        require(contracts[_contractId].timelock <= now, \"refundable: timelock not yet passed\");\n        _;\n    }\n\n    mapping (bytes32 => LockContract) contracts;\n\n    /**\n     * @dev Sender sets up a new hash time lock contract depositing the ETH and\n     * providing the reciever lock terms.\n     *\n     * @param _receiver Receiver of the ETH.\n     * @param _sk1x, _sk1y The calculated results based on sk1 which was given during the negotiation phase.\n     * @param _timelock UNIX epoch seconds time that the lock expires at.\n     *                  Refunds can be made after this time.\n     * @return contractId Id of the new HTLC. This is needed for subsequent\n     *                    calls.\n     */\n    function newContract(address payable _receiver, bytes32 _datahash, uint256 _sk1x, uint256 _sk1y, uint _timelock)\n        external\n        payable\n        fundsSent\n        futureTimelock(_timelock)\n        returns (bytes32 contractId)\n    {\n        contractId = keccak256(\n            abi.encodePacked(\n                msg.sender,\n                _receiver,\n                _datahash,\n                msg.value,\n                _sk1x,\n                _sk1y,\n                _timelock\n            )\n        );\n\n        // Reject if a contract already exists with the same parameters. The\n        // sender must change one of these parameters to create a new distinct\n        // contract.\n        if (haveContract(contractId))\n            revert(\"Contract already exists\");\n\n        contracts[contractId] = LockContract(\n            msg.sender,\n            _receiver,\n            _datahash,\n            msg.value,\n            _sk1x,\n            _sk1y,\n            _timelock,\n            false,\n            false\n        );\n\n        emit LogHTLCNew(\n            contractId,\n            msg.sender,\n            _receiver,\n            _datahash,\n            msg.value,\n            _sk1x,\n            _sk1y,\n            _timelock\n        );\n    }\n\n    function hashChain(bytes32 newHash) public {\n        if(storedHash == 0) {\n            storedHash = newHash;\n        } else {\n            storedHash = keccak256(abi.encodePacked(storedHash, newHash));  \n        }\n    }\n\n    /**\n     * @dev Called by the receiver once they know sk2.\n     * This will transfer the locked funds to their address.\n     *\n     * @param _contractId Id of the HTLC.\n     * @param _sk2 G(X,Y)**_sk2 should equal to (sk1x,sk1y).\n     * @return bool true on success\n     */\n    function withdraw(bytes32 _contractId, uint256 _sk2)\n        external\n        contractExists(_contractId)\n        sklockMatches(_contractId, _sk2)\n        withdrawable(_contractId)\n        returns (bool)\n    {\n        LockContract storage c = contracts[_contractId];\n        //c.sk2 = _preimage;\n        c.withdrawn = true;\n        c.receiver.transfer(c.amount);\n        hashChain(c.datahash);\n        emit LogHTLCWithdraw(_contractId);\n        return true;\n    }\n\n    /**\n     * @dev Called by the sender if there was no withdraw AND the time lock has\n     * expired. This will refund the contract amount.\n     *\n     * @param _contractId Id of HTLC to refund from.\n     * @return bool true on success\n     */\n    function refund(bytes32 _contractId)\n        external\n        contractExists(_contractId)\n        refundable(_contractId)\n        returns (bool)\n    {\n        LockContract storage c = contracts[_contractId];\n        c.refunded = true;\n        c.sender.transfer(c.amount);\n        emit LogHTLCRefund(_contractId);\n        return true;\n    }\n\n    /**\n     * @dev Get contract details.\n     * @param _contractId HTLC contract id\n     * return All parameters in struct LockContract for _contractId HTLC\n     */\n    function getContract(bytes32 _contractId) \n    public \n    view \n    returns (\n        address sender,\n        address receiver,\n        bytes32 datahash,\n        uint amount,\n        uint256 sk1x,\n        uint256 sk1y,\n        uint timelock,\n        bool withdrawn,\n        bool refunded)\n    {\n        if (haveContract(_contractId) == false)\n            return (address(0), address(0), bytes32(0), 0, 0, 0, 0, false, false);\n        LockContract storage c = contracts[_contractId];\n        return (\n            c.sender,\n            c.receiver,\n            c.datahash,\n            c.amount,\n            c.sk1x,\n            c.sk1y,\n            c.timelock,\n            c.withdrawn,\n            c.refunded\n        );\n    }\n\n    /**\n     * @dev Is there a contract with id _contractId.\n     * @param _contractId Id into contracts mapping.\n     */\n    function haveContract(bytes32 _contractId)\n        internal\n        view\n        returns (bool exists)\n    {\n        exists = (contracts[_contractId].sender != address(0));\n    }\n\n    function validateCommitment(bytes32[] memory data_list, uint256[] memory sale_num, uint256[] memory sale_list) public {\n        require(data_list.length > 0, \"Data list must not be empty\");\n        require(sale_num.length > 0, \"Sale number must not be empty\");\n        require(sale_list.length > 0, \"Sale list must not be empty\");\n\n        uint256 epochSize = sale_list.length;    //Total number of sale\n        uint256 total = 0;\n        \n        for (uint256 i = 0; i < sale_num.length; i++) {\n            total += sale_num[i];\n        }\n        // emit Res(total);\n        require(total == epochSize, \"Total transaction number must match\");\n        \n        bytes32 currentHash = bytes32(0);\n\n        // Iterate through the sale list and calculate the hash chain\n        for (uint256 i = 0; i < epochSize; i++) {\n            currentHash = keccak256(abi.encodePacked(currentHash, data_list[sale_list[i]]));\n            sale_num[sale_list[i]] -= 1;\n        }\n\n        for (uint256 i = 0; i < sale_num.length; i++) {\n            require(sale_num[i] == 0, \"Sale number must match\");\n        }\n\n        // Iterate through the array of hash values and calculate the hash chain\n        uint256 treeSize = data_list.length;\n        while (treeSize > 1) {\n            uint256 j = 0;\n            for (uint256 i = 0; i < treeSize - 2; i += 2) {\n                data_list[j] = keccak256(abi.encodePacked(data_list[i],data_list[i+1]));\n                j += 1;\n            }\n            if (treeSize % 2 == 1) {\n                data_list[j] = data_list[treeSize-1];\n                treeSize = treeSize / 2 + 1;\n            } else {\n                treeSize = treeSize / 2;\n            }\n        }\n\n        emit Results(data_list[0], total);\n\n        }\n\n}",
  "sourcePath": "/home/shady/Github/FairTradeExt/contracts/OursWithCmt.sol",
  "compiler": {
    "name": "solc",
    "version": "0.5.16+commit.9c3226ce.Emscripten.clang"
  },
  "schemaVersion": "3.4.16",
  "updatedAt": "2025-12-29T23:43:01.372Z",
  "devdoc": {
    "methods": {
      "getContract(bytes32)": {
        "details": "Get contract details.",
        "params": {
          "_contractId": "HTLC contract id return All parameters in struct LockContract for _contractId HTLC"
        }
      },
      "newContract(address,bytes32,uint256,uint256,uint256)": {
        "details": "Sender sets up a new hash time lock contract depositing the ETH and providing the reciever lock terms.",
        "params": {
          "_receiver": "Receiver of the ETH.",
          "_sk1x": ", _sk1y The calculated results based on sk1 which was given during the negotiation phase.",
          "_timelock": "UNIX epoch seconds time that the lock expires at.                 Refunds can be made after this time."
        },
        "return": "contractId Id of the new HTLC. This is needed for subsequent                   calls."
      },
      "refund(bytes32)": {
        "details": "Called by the sender if there was no withdraw AND the time lock has expired. This will refund the contract amount.",
        "params": {
          "_contractId": "Id of HTLC to refund from."
        },
        "return": "bool true on success"
      },
      "withdraw(bytes32,uint256)": {
        "details": "Called by the receiver once they know sk2. This will transfer the locked funds to their address.",
        "params": {
          "_contractId": "Id of the HTLC.",
          "_sk2": "G(X,Y)**_sk2 should equal to (sk1x,sk1y)."
        },
        "return": "bool true on success"
      }
    },
    "title": "Hashed Timelock Contracts (HTLCs) on Ethereum ETH. * This contract provides a way to create and keep HTLCs for ETH. * See HashedTimelockERC20.sol for a contract that provides the same functions for ERC20 tokens. * Protocol: *  1) newContract(receiver, sk1, sk1y, timelock) - a sender calls this to create     a new HTLC and gets back a 32 byte contract id 2) withdraw(contractId, sk2) - once the receiver knows sk2      they can claim the ETH with this function 3) refund() - after timelock has expired and if the receiver did not     withdraw funds the sender / creator of the HTLC can get their ETH     back with this function."
  },
  "userdoc": {
    "methods": {}
  }
}